SIM-C-001001ACT-C-001 W00000008500020260224575339Simulated withdrawal                    00
SIM-C-001002ACT-C-002 W00000014470020260224575339Simulated withdrawal                    00
SIM-C-001003ACT-C-003 D00000010670020260224575339Simulated deposit                       00
SIM-C-001004ACT-C-005 D00000009590020260224575339Simulated deposit                       00
SIM-C-001005ACT-C-007 T00000008330020260224575339Simulated internal transfer             00
SIM-C-002001ACT-C-001 D00000043760020260224575828Simulated deposit                       00
SIM-C-002002ACT-C-003 T00000043140020260224575828Outbound interbank transfer             00
SIM-C-002003ACT-C-005 W00000012200020260224575828Simulated withdrawal                    00
SIM-C-002004ACT-C-007 D00000022020020260224575828Simulated deposit                       00
SIM-C-003001ACT-C-001 T00000023410020260224580319Simulated internal transfer             00
SIM-C-003002ACT-C-003 W00000018080020260224580319Simulated withdrawal                    00
SIM-C-003003ACT-C-004 W00000004300020260224580319Simulated withdrawal                    00
SIM-C-003004ACT-C-005 D00000005610020260224580319Simulated deposit                       00
SIM-C-003005ACT-C-006 D00000029820020260224580319Simulated deposit                       00
SIM-C-003006ACT-C-008 T00000019420020260224580319Simulated internal transfer             00
SIM-C-004001ACT-C-002 D00000014490020260224580802Simulated deposit                       00
SIM-C-004002ACT-C-004 D00000013410020260224580802Simulated deposit                       00
SIM-C-004003ACT-C-006 T00000018890020260224580802Simulated internal transfer             00
SIM-C-004004ACT-C-008 W00000008000020260224580802Simulated withdrawal                    00
SIM-C-005001ACT-C-002 T00000017500020260224581302Outbound interbank transfer             00
SIM-C-005002ACT-C-004 W00000001940020260224581302Simulated withdrawal                    00
SIM-C-005003ACT-C-006 D00000025840020260224581302Simulated deposit                       00
SIM-C-005004ACT-C-007 D00000000550020260224581302Simulated deposit                       00
SIM-C-005005ACT-C-008 D00000024760020260224581302Simulated deposit                       00
SIM-C-006001ACT-C-001 W00000001850020260224581801Simulated withdrawal                    00
SIM-C-006002ACT-C-003 W00000013790020260224581801Simulated withdrawal                    00
SIM-C-006003ACT-C-005 D00000033640020260224581801Simulated deposit                       00
SIM-C-006004ACT-C-007 T00000029980020260224581801Simulated internal transfer             00
SIM-C-007001ACT-C-001 D00000018310020260224582211Simulated deposit                       00
SIM-C-007002ACT-C-003 D00000017230020260224582211Simulated deposit                       00
SIM-C-007003ACT-C-005 T00000029450020260224582211Simulated internal transfer             00
SIM-C-007004ACT-C-007 W00000017490020260224582211Simulated withdrawal                    00
SIM-C-008001ACT-C-001 T00000039860020260224582714Outbound interbank transfer             00
SIM-C-008002ACT-C-002 T00000022490020260224582714Simulated internal transfer             00
SIM-C-008003ACT-C-003 W00000011430020260224582714Simulated withdrawal                    00
SIM-C-008004ACT-C-004 W00000017400020260224582714Simulated withdrawal                    00
SIM-C-008005ACT-C-006 D00000004370020260224582714Simulated deposit                       00
SIM-C-008006ACT-C-008 D00000003290020260224582714Simulated deposit                       00
SIM-C-009001ACT-C-002 W00000003530020260224583232Simulated withdrawal                    00
SIM-C-009002ACT-C-004 D00000037460020260224583232Simulated deposit                       00
SIM-C-009003ACT-C-006 T00000011540020260224583232Simulated internal transfer             00
SIM-C-009004ACT-C-008 W00000001350020260224583232Simulated withdrawal                    00
SIM-C-010001ACT-C-002 D00000021050020260224583765Simulated deposit                       00
SIM-C-010002ACT-C-004 T00000011010020260224583765Simulated internal transfer             00
SIM-C-010003ACT-C-005 W00000001260020260224583765Simulated withdrawal                    00
SIM-C-010004ACT-C-006 W00000007230020260224583765Simulated withdrawal                    00
SIM-C-010005ACT-C-007 D00000024600020260224583765Simulated deposit                       00
SIM-C-010006ACT-C-008 D00000048810020260224583765Simulated deposit                       00
SIM-C-011001ACT-C-001 T00000004050020260224584296Simulated internal transfer             00
SIM-C-011002ACT-C-003 W00000007140020260224584296Simulated withdrawal                    00
SIM-C-011003ACT-C-005 D00000008190020260224584296Simulated deposit                       00
SIM-C-011004ACT-C-007 D00000007110020260224584296Simulated deposit                       00
SIM-C-012001ACT-C-001 W00000013020020260224584831Simulated withdrawal                    00
SIM-C-012002ACT-C-003 D00000041280020260224584831Simulated deposit                       00
SIM-C-012003ACT-C-005 T00000042100020260224584831Outbound interbank transfer             00
SIM-C-012004ACT-C-007 W00000010840020260224584831Simulated withdrawal                    00
SIM-C-012005ACT-C-008 W00000016810020260224584831Simulated withdrawal                    00
SIM-C-013001ACT-C-001 D00000024870020260224585262Simulated deposit                       00
SIM-C-013002ACT-C-002 T00000039340020260224585262Outbound interbank transfer             00
SIM-C-013003ACT-C-003 T00000021570020260224585262Simulated internal transfer             00
SIM-C-013004ACT-C-004 W00000010750020260224585262Simulated withdrawal                    00
SIM-C-013005ACT-C-006 W00000002940020260224585262Simulated withdrawal                    00
SIM-C-013006ACT-C-008 D00000027340020260224585262Simulated deposit                       00
SIM-C-014001ACT-C-002 W00000016630020260224585784Simulated withdrawal                    00
SIM-C-014002ACT-C-004 D00000012010020260224585784Simulated deposit                       00
SIM-C-014003ACT-C-006 D00000010930020260224585784Simulated deposit                       00
SIM-C-014004ACT-C-008 T00000017050020260224585784Simulated internal transfer             00
SIM-C-015001ACT-C-002 D00000045100020260224590315Simulated deposit                       00
SIM-C-015002ACT-C-003 D00000019810020260224590315Simulated deposit                       00
SIM-C-015003ACT-C-004 T00000016460020260224590315Outbound interbank transfer             00
SIM-C-015004ACT-C-005 T00000010090020260224590315Simulated internal transfer             00
SIM-C-015005ACT-C-006 W00000000580020260224590315Simulated withdrawal                    00
SIM-C-015006ACT-C-007 W00000006550020260224590315Simulated withdrawal                    00
SIM-C-016001ACT-C-001 T00000013700020260224590849Outbound interbank transfer             00
SIM-C-016002ACT-C-003 W00000000490020260224590849Simulated withdrawal                    00
SIM-C-016003ACT-C-005 W00000012430020260224590849Simulated withdrawal                    00
SIM-C-016004ACT-C-007 D00000031160020260224590849Simulated deposit                       00
SIM-C-017001ACT-C-001 W00000006370020260224591387Simulated withdrawal                    00
SIM-C-017002ACT-C-003 D00000015830020260224591387Simulated deposit                       00
SIM-C-017003ACT-C-005 D00000014750020260224591387Simulated deposit                       00
SIM-C-017004ACT-C-006 T00000041580020260224591387Outbound interbank transfer             00
SIM-C-017005ACT-C-007 T00000027610020260224591387Simulated internal transfer             00
SIM-C-017006ACT-C-008 W00000010160020260224591387Simulated withdrawal                    00
SIM-C-018001ACT-C-001 D00000048920020260224591836Simulated deposit                       00
SIM-C-018002ACT-C-002 D00000023630020260224591836Simulated deposit                       00
SIM-C-018003ACT-C-004 T00000020650020260224591836Simulated internal transfer             00
SIM-C-018004ACT-C-006 W00000016040020260224591836Simulated withdrawal                    00
SIM-C-018005ACT-C-008 D00000001890020260224591836Simulated deposit                       00
SIM-C-019001ACT-C-002 T00000020120020260224592382Simulated internal transfer             00
SIM-C-019002ACT-C-004 W00000002170020260224592382Simulated withdrawal                    00
SIM-C-019003ACT-C-006 D00000034980020260224592382Simulated deposit                       00
SIM-C-019004ACT-C-008 T00000009700020260224592382Simulated internal transfer             00
SIM-C-020001ACT-C-002 D00000019650020260224592919Simulated deposit                       00
SIM-C-020002ACT-C-003 D00000043860020260224592919Simulated deposit                       00
SIM-C-020003ACT-C-004 D00000018570020260224592919Simulated deposit                       00
SIM-C-020004ACT-C-005 T00000015940020260224592919Outbound interbank transfer             00
SIM-C-020005ACT-C-007 W00000019650020260224592919Simulated withdrawal                    00
SIM-C-021001ACT-C-001 D00000027450020260224593444Simulated deposit                       00
SIM-C-021002ACT-C-003 T00000002210020260224593444Simulated internal transfer             00
SIM-C-021003ACT-C-005 W00000005780020260224593444Simulated withdrawal                    00
SIM-C-021004ACT-C-007 D00000005710020260224593444Simulated deposit                       00
SIM-C-022001ACT-C-001 T00000001680020260224593976Simulated internal transfer             00
SIM-C-022002ACT-C-003 W00000011660020260224593976Simulated withdrawal                    00
SIM-C-022003ACT-C-005 D00000038800020260224593976Simulated deposit                       00
SIM-C-022004ACT-C-006 D00000013510020260224593976Simulated deposit                       00
SIM-C-022005ACT-C-007 T00000041060020260224593976Outbound interbank transfer             00
SIM-C-022006ACT-C-008 T00000026690020260224593976Simulated internal transfer             00
SIM-C-023001ACT-C-002 D00000047680020260224594513Simulated deposit                       00
SIM-C-023002ACT-C-004 T00000038300020260224594513Outbound interbank transfer             00
SIM-C-023003ACT-C-006 W00000009390020260224594513Simulated withdrawal                    00
SIM-C-023004ACT-C-008 W00000001580020260224594513Simulated withdrawal                    00
SIM-C-024001ACT-C-002 T00000012770020260224594965Simulated internal transfer             00
SIM-C-024002ACT-C-004 W00000015270020260224594965Simulated withdrawal                    00
SIM-C-024003ACT-C-006 D00000009530020260224594965Simulated deposit                       00
SIM-C-024004ACT-C-008 D00000008450020260224594965Simulated deposit                       00
SIM-C-025001ACT-C-001 W00000015180020260224595509Simulated withdrawal                    00
SIM-C-025002ACT-C-002 W00000001400020260224595509Simulated withdrawal                    00
SIM-C-025003ACT-C-003 D00000018410020260224595509Simulated deposit                       00
SIM-C-025004ACT-C-005 D00000017330020260224595509Simulated deposit                       00
SIM-C-025005ACT-C-007 T00000008250020260224595509Simulated internal transfer             00
