SIM-A-001001ACT-A-001 T00000009090020260224575179Simulated internal transfer             00
SIM-A-001002ACT-A-003 W00000012550020260224575179Simulated withdrawal - NSF              01
SIM-A-001003ACT-A-005 D00000004570020260224575179Simulated deposit                       00
SIM-A-001004ACT-A-007 D00000003490020260224575179Simulated deposit                       00
SIM-A-002001ACT-A-001 W00000018430020260224575664Simulated withdrawal                    00
SIM-A-002002ACT-A-003 D00000037660020260224575664Simulated deposit                       00
SIM-A-002003ACT-A-004 D00000012370020260224575664Simulated deposit                       00
SIM-A-002004ACT-A-005 T00000013340020260224575664Outbound interbank transfer             00
SIM-A-002005ACT-A-006 T00000004570020260224575664Simulated internal transfer             00
SIM-A-002006ACT-A-008 W00000002470020260224575664Simulated withdrawal                    00
SIM-A-003001ACT-A-002 T00000010580020260224580156Outbound interbank transfer             00
SIM-A-003002ACT-A-004 W00000016160020260224580156Simulated withdrawal                    00
SIM-A-003003ACT-A-006 W00000008350020260224580156Simulated withdrawal                    00
SIM-A-003004ACT-A-008 D00000023720020260224580156Simulated deposit                       00
SIM-A-004001ACT-A-002 W00000002290020260224580639Simulated withdrawal                    00
SIM-A-004002ACT-A-004 D00000008390020260224580639Simulated deposit                       00
SIM-A-004003ACT-A-006 D00000007310020260224580639Simulated deposit                       00
SIM-A-004004ACT-A-007 T00000038460020260224580639Outbound transfer - NSF                 01
SIM-A-004005ACT-A-008 T00000022090020260224580639Simulated internal transfer             00
SIM-A-005001ACT-A-001 D00000017270020260224581134Simulated deposit                       00
SIM-A-005002ACT-A-002 D00000041480020260224581134Simulated deposit                       00
SIM-A-005003ACT-A-003 D00000016190020260224581134Simulated deposit                       00
SIM-A-005004ACT-A-005 T00000015130020260224581134Simulated internal transfer             00
SIM-A-005005ACT-A-007 W00000011960020260224581134Simulated withdrawal                    00
SIM-A-006001ACT-A-001 T00000032940020260224581633Outbound interbank transfer             00
SIM-A-006002ACT-A-003 T00000014600020260224581633Simulated internal transfer             00
SIM-A-006003ACT-A-005 W00000017840020260224581633Simulated withdrawal - NSF              01
SIM-A-006004ACT-A-007 D00000027540020260224581633Simulated deposit                       00
SIM-A-007001ACT-A-001 W00000011780020260224582044Simulated withdrawal                    00
SIM-A-007002ACT-A-002 W00000017750020260224582044Simulated withdrawal                    00
SIM-A-007003ACT-A-003 D00000012210020260224582044Simulated deposit                       00
SIM-A-007004ACT-A-004 D00000036420020260224582044Simulated deposit                       00
SIM-A-007005ACT-A-005 D00000011130020260224582044Simulated deposit                       00
SIM-A-007006ACT-A-006 T00000012820020260224582044Outbound interbank transfer             00
SIM-A-007007ACT-A-008 W00000015570020260224582044Simulated withdrawal                    00
SIM-A-008001ACT-A-002 D00000020010020260224582548Simulated deposit                       00
SIM-A-008002ACT-A-004 T00000025690020260224582548Simulated internal transfer             00
SIM-A-008003ACT-A-006 W00000001700020260224582548Simulated withdrawal                    00
SIM-A-008004ACT-A-008 D00000047770020260224582548Simulated deposit                       00
SIM-A-009001ACT-A-002 T00000025160020260224583057Simulated internal transfer             00
SIM-A-009002ACT-A-004 W00000007580020260224583057Simulated withdrawal                    00
SIM-A-009003ACT-A-005 D00000007150020260224583057Simulated deposit                       00
SIM-A-009004ACT-A-006 D00000031360020260224583057Simulated deposit                       00
SIM-A-009005ACT-A-007 D00000006070020260224583057Simulated deposit                       00
SIM-A-009006ACT-A-008 T00000037940020260224583057Outbound interbank transfer             00
SIM-A-010001ACT-A-001 W00000007490020260224583587Simulated withdrawal                    00
SIM-A-010002ACT-A-003 D00000040240020260224583587Simulated deposit                       00
SIM-A-010003ACT-A-005 T00000035180020260224583587Outbound interbank transfer             00
SIM-A-010004ACT-A-007 W00000005310020260224583587Simulated withdrawal                    00
SIM-A-011001ACT-A-001 D00000023830020260224584118Simulated deposit                       00
SIM-A-011002ACT-A-003 T00000007250020260224584118Simulated internal transfer             00
SIM-A-011003ACT-A-005 W00000011190020260224584118Simulated withdrawal                    00
SIM-A-011004ACT-A-007 D00000002090020260224584118Simulated deposit                       00
SIM-A-011005ACT-A-008 D00000026300020260224584118Simulated deposit                       00
SIM-A-012001ACT-A-001 T00000006720020260224584650Simulated internal transfer             00
SIM-A-012002ACT-A-002 W00000011100020260224584650Simulated withdrawal                    00
SIM-A-012003ACT-A-003 W00000017070020260224584650Simulated withdrawal                    00
SIM-A-012004ACT-A-004 D00000010970020260224584650Simulated deposit                       00
SIM-A-012005ACT-A-006 D00000009890020260224584650Simulated deposit                       00
SIM-A-012006ACT-A-008 T00000002730020260224584650Simulated internal transfer             00
SIM-A-013001ACT-A-002 D00000044060020260224585085Simulated deposit                       00
SIM-A-013002ACT-A-004 T00000009540020260224585085Outbound interbank transfer             00
SIM-A-013003ACT-A-006 W00000014800020260224585085Simulated withdrawal                    00
SIM-A-013004ACT-A-008 W00000006990020260224585085Simulated withdrawal                    00
SIM-A-014001ACT-A-002 T00000017810020260224585612Simulated internal transfer             00
SIM-A-014002ACT-A-004 W00000000930020260224585612Simulated withdrawal                    00
SIM-A-014003ACT-A-005 W00000006900020260224585612Simulated withdrawal                    00
SIM-A-014004ACT-A-006 D00000005910020260224585612Simulated deposit                       00
SIM-A-014005ACT-A-007 D00000030120020260224585612Simulated deposit                       00
SIM-A-015001ACT-A-001 W00000000840020260224590137Simulated withdrawal                    00
SIM-A-015002ACT-A-003 D00000014790020260224590137Simulated deposit                       00
SIM-A-015003ACT-A-005 D00000013710020260224590137Simulated deposit                       00
SIM-A-015004ACT-A-007 T00000013290020260224590137Simulated internal transfer             00
SIM-A-016001ACT-A-001 D00000047880020260224590674Simulated deposit                       00
SIM-A-016002ACT-A-003 T00000031900020260224590674Outbound interbank transfer             00
SIM-A-016003ACT-A-005 T00000012760020260224590674Simulated internal transfer             00
SIM-A-016004ACT-A-007 W00000016480020260224590674Simulated withdrawal                    00
SIM-A-016005ACT-A-008 D00000000850020260224590674Simulated deposit                       00
SIM-A-017001ACT-A-001 T00000028370020260224591209Simulated internal transfer             00
SIM-A-017002ACT-A-002 T00000005800020260224591209Simulated internal transfer             00
SIM-A-017003ACT-A-004 W00000016390020260224591209Simulated withdrawal                    00
SIM-A-017004ACT-A-006 D00000033940020260224591209Simulated deposit                       00
SIM-A-017005ACT-A-008 T00000011780020260224591209Outbound interbank transfer             00
SIM-A-018001ACT-A-002 D00000018610020260224591655Simulated deposit                       00
SIM-A-018002ACT-A-004 D00000017530020260224591655Simulated deposit                       00
SIM-A-018003ACT-A-006 T00000023850020260224591655Simulated internal transfer             00
SIM-A-018004ACT-A-008 W00000000340020260224591655Simulated withdrawal                    00
SIM-A-019001ACT-A-002 D00000001120020260224592200Simulated deposit                       00
SIM-A-019002ACT-A-003 T00000016890020260224592200Simulated internal transfer             00
SIM-A-019003ACT-A-004 T00000023320020260224592200Simulated internal transfer             00
SIM-A-019004ACT-A-005 W00000000250020260224592200Simulated withdrawal                    00
SIM-A-019005ACT-A-007 D00000004670020260224592200Simulated deposit                       00
SIM-A-020001ACT-A-001 T00000016360020260224592742Simulated internal transfer             00
SIM-A-020002ACT-A-003 W00000006130020260224592742Simulated withdrawal                    00
SIM-A-020003ACT-A-005 D00000037760020260224592742Simulated deposit                       00
SIM-A-020004ACT-A-007 T00000034140020260224592742Outbound interbank transfer             00
SIM-A-021001ACT-A-001 D00000022430020260224593270Simulated deposit                       00
SIM-A-021002ACT-A-003 D00000021350020260224593270Simulated deposit                       00
SIM-A-021003ACT-A-005 T00000005410020260224593270Simulated internal transfer             00
SIM-A-021004ACT-A-006 T00000011840020260224593270Simulated internal transfer             00
SIM-A-021005ACT-A-007 W00000009830020260224593270Simulated withdrawal                    00
SIM-A-021006ACT-A-008 W00000015800020260224593270Simulated withdrawal                    00
SIM-A-022001ACT-A-002 T00000027450020260224593798Simulated internal transfer             00
SIM-A-022002ACT-A-004 W00000009740020260224593798Simulated withdrawal                    00
SIM-A-022003ACT-A-006 D00000008490020260224593798Simulated deposit                       00
SIM-A-022004ACT-A-008 D00000007410020260224593798Simulated deposit                       00
SIM-A-023001ACT-A-002 W00000015620020260224594335Simulated withdrawal                    00
SIM-A-023002ACT-A-004 D00000041580020260224594335Simulated deposit                       00
SIM-A-023003ACT-A-006 T00000008500020260224594335Outbound interbank transfer             00
SIM-A-023004ACT-A-008 W00000013440020260224594335Simulated withdrawal                    00
SIM-A-024001ACT-A-001 D00000000960020260224594780Simulated deposit                       00
SIM-A-024002ACT-A-002 D00000025170020260224594780Simulated deposit                       00
SIM-A-024003ACT-A-003 T00000005740020260224594780Outbound interbank transfer             00
SIM-A-024004ACT-A-005 T00000022400020260224594780Simulated internal transfer             00
SIM-A-024005ACT-A-007 W00000005540020260224594780Simulated withdrawal                    00
SIM-A-025001ACT-A-001 T00000009010020260224595330Simulated internal transfer             00
SIM-A-025002ACT-A-003 W00000019230020260224595330Simulated withdrawal                    00
SIM-A-025003ACT-A-005 D00000012310020260224595330Simulated deposit                       00
SIM-A-025004ACT-A-007 D00000011230020260224595330Simulated deposit                       00
