EMP-001Alice Johnson            BANK_A  ACT-A-001 0075000000000000000026AS0119950315ACCTBN006  
EMP-002Bob Martinez             BANK_A  ACT-A-002 0000000000452000400026AH0220010820WARHNY003  
EMP-003Carol Williams           BANK_A  ACT-A-003 0082000000000000000026AS0119980112MGMTPY008  
EMP-004David Chen               BANK_A  ACT-A-004 0000000000385000450026AH0320051103OPSRBN005  
EMP-005Eve Santos               BANK_A  ACT-A-005 0061000000000000000026AS0120100615FINAPY006  
EMP-006Frank O'Brien            BANK_B  ACT-B-001 0095000000000000000026AS0119920708EXECBN010  
EMP-007Grace Kim                BANK_B  ACT-B-002 0056000000000000000026AS0220030422ACCTPY007  
EMP-008Henry Okafor             BANK_B  ACT-B-003 0000000000410000380026AH0320080914OPSRNN004  
EMP-009Isabel Reyes             BANK_B  ACT-B-004 0072000000000000000026AS0119990530MGMTBN009  
EMP-010James Park               BANK_B  ACT-B-005 0000000000320000400026TH0420120101TEMPNN000  
EMP-011Karen Schmidt            BANK_C  ACT-C-001 0068000000000000000026AS0120000301ACCTPY006  
EMP-012Larry Thompson           BANK_C  ACT-C-002 0000000000480000420026AH0220060715WARHNY004  
EMP-013Maria Garcia             BANK_C  ACT-C-003 0110000000000000000026AS0119880620EXECPY010  
EMP-014Nathan Wright            BANK_C  ACT-C-004 0000000000390000400026AH0320091128OPSRBN005  
EMP-015Olivia Davis             BANK_C  ACT-C-005 0055000000000000000026AS0220140203FINANN007  
EMP-016Patrick Lee              BANK_D  ACT-D-001 0078000000000000000026AS0119970412ACCTPY008  
EMP-017Quinn Foster             BANK_D  ACT-D-002 0000000000420000400026AH0220040818WARHNY003  
EMP-018Rachel Nguyen            BANK_D  ACT-D-003 0089000000000000000026AS0119930925MGMTBN009  
EMP-019Samuel Brown             BANK_D  ACT-D-004 0000000000360000400026AH0320070611OPSRNN005  
EMP-020Tina Washington          BANK_D  ACT-D-005 0063000000000000000026AS0220110509FINAPY006  
EMP-021Ulrich Bauer             BANK_E  ACT-E-001 0071000000000000000026AS0119960827ACCTPY007  
EMP-022Victoria Patel           BANK_E  ACT-E-002 0051000000000000000026AS0220020314ACCTBN006  
EMP-023William Chang            BANK_E  ACT-E-003 0000000000450000400026AH0320100720WARHNY004  
EMP-024Xena Rodriguez           BANK_E  ACT-E-004 0092000000000000000026AS0119910103EXECPY010  
EMP-025Yuki Tanaka              BANK_E  ACT-E-005 0000000000340000400026LH0420130605OPSRNN003  
