TRX-D-000001ACT-D-001  00000035000020260217101530                                        00
TRX-D-000002ACT-D-002  00000007500020260217101530                                        00
TRX-D-000003ACT-D-004  00000500000020260217101530                                        00
TRX-D-000004ACT-D-003  00000000000020260217101530XFER-FROM-BANK_A-ACT-A-006              00
TRX-D-000005ACT-D-001  00000000000020260217101530XFER-FROM-BANK_E-ACT-E-007              00
TRX-D-000006ACT-D-005  00000000000020260217101530XFER-FROM-BANK_A-ACT-A-002              00
TRX-D-000007ACT-D-002  00000000000020260217101530XFER-FROM-BANK_A-ACT-A-008              00
TRX-D-000008ACT-D-003  00000000000020260217101530XFER-FROM-BANK_A-ACT-A-007              00
TRX-D-000009ACT-D-004  00000000000020260217101530XFER-TO-BANK_C-ACT-C-001                00
TRX-D-000010ACT-D-002  00000000000020260217101530XFER-FROM-BANK_B-ACT-B-007              00
TRX-D-000011ACT-D-005  00000000000020260217101530XFER-FROM-BANK_A-ACT-A-008              00
TRX-D-000012ACT-D-005  00000000000020260217101530XFER-FROM-BANK_E-ACT-E-006              00
TRX-D-000013ACT-D-001  00000000000020260217101530XFER-TO-BANK_A-ACT-A-004                00
TRX-D-000014ACT-D-005  00000000000020260217101530XFER-FROM-BANK_E-ACT-E-003              00
TRX-D-000015ACT-D-001  00000000000020260217101530XFER-TO-BANK_A-ACT-A-006                00
TRX-D-000016ACT-D-005  00000000000020260217101530XFER-TO-BANK_A-ACT-A-005                00
TRX-D-000017ACT-D-002  00000000000020260217101530XFER-FROM-BANK_E-ACT-E-006              00
TRX-D-000018ACT-D-005  00000000000020260217101530XFER-FROM-BANK_B-ACT-B-001              00
TRX-D-000019ACT-D-002  00000000000020260217101530XFER-FROM-BANK_A-ACT-A-008              00
TRX-D-000020ACT-D-003  00000000000020260217101530XFER-FROM-BANK_A-ACT-A-007              00
TRX-D-000021ACT-D-004  00000000000020260217101530XFER-TO-BANK_C-ACT-C-001                00
TRX-D-000022ACT-D-002  00000000000020260217101530XFER-FROM-BANK_A-ACT-A-005              00
TRX-D-000023ACT-D-004  00000000000020260217101530XFER-TO-BANK_E-ACT-E-008                00
TRX-D-000024ACT-D-004  00000000000020260217101530XFER-TO-BANK_A-ACT-A-003                00
TRX-D-000025ACT-D-006  00000000000020260217101530XFER-FROM-BANK_A-ACT-A-001              00
TRX-D-000026ACT-D-001  00000000000020260217101530XFER-FROM-BANK_C-ACT-C-002              00
TRX-D-000027ACT-D-003  00000000000020260217101530XFER-FROM-BANK_C-ACT-C-003              00
TRX-D-000028ACT-D-006  00000000000020260217101530XFER-FROM-BANK_C-ACT-C-002              00
TRX-D-000029ACT-D-004  00000000000020260217101530XFER-FROM-BANK_C-ACT-C-002              00
TRX-D-000030ACT-D-006  00000000000020260217101530XFER-FROM-BANK_A-ACT-A-002              00
TRX-D-000031ACT-D-006  00000000000020260217101530XFER-FROM-BANK_B-ACT-B-002              00
TRX-D-000032ACT-D-006  00000000000020260217101530XFER-TO-BANK_E-ACT-E-005                00
TRX-D-000033ACT-D-003  00000000000020260217101530XFER-FROM-BANK_C-ACT-C-004              00
TRX-D-000034ACT-D-002  00000000000020260217101530XFER-TO-BANK_B-ACT-B-002                00
TRX-D-000035ACT-D-005  00000000000020260217101530XFER-FROM-BANK_E-ACT-E-002              00
TRX-D-000036ACT-D-005  00000000000020260217101530XFER-FROM-BANK_A-ACT-A-002              00
TRX-D-000037ACT-D-006  00000000000020260217101530XFER-FROM-BANK_E-ACT-E-008              00
TRX-D-000038ACT-D-004  00000000000020260217101530XFER-FROM-BANK_B-ACT-B-007              00
TRX-D-000039ACT-D-003  00000000000020260217101530XFER-FROM-BANK_B-ACT-B-001              00
TRX-D-000040ACT-D-004  00000000000020260217101530XFER-TO-BANK_E-ACT-E-008                00
TRX-D-000041ACT-D-002  00000000000020260217101530XFER-TO-BANK_A-ACT-A-005                00
TRX-D-000042ACT-D-003  00000000000020260217101530XFER-FROM-BANK_B-ACT-B-003              00
TRX-D-000043ACT-D-001  00000000000020260217101530XFER-FROM-BANK_A-ACT-A-006              00
TRX-D-000044ACT-D-002  00000000000020260217101530XFER-FROM-BANK_B-ACT-B-005              00
TRX-D-000045ACT-D-003  00000000000020260217101530XFER-FROM-BANK_A-ACT-A-004              00
TRX-D-000046ACT-D-004  00000000000020260217101530XFER-FROM-BANK_A-ACT-A-005              00
TRX-D-000047ACT-D-005  00000000000020260217101530XFER-FROM-BANK_B-ACT-B-005              00
TRX-D-000048ACT-D-003  00000000000020260217101530XFER-TO-BANK_B-ACT-B-002                00
TRX-D-000049ACT-D-004  00000000000020260217101530XFER-FROM-BANK_B-ACT-B-006              00
TRX-D-000050ACT-D-001  00000000000020260217101530XFER-FROM-BANK_A-ACT-A-008              00
TRX-D-000051ACT-D-006  00000000000020260217101530XFER-TO-BANK_C-ACT-C-002                00
TRX-D-000052ACT-D-005  00000000000020260217101530XFER-FROM-BANK_E-ACT-E-008              00
TRX-D-000053ACT-D-003  00000000000020260217101530XFER-TO-BANK_A-ACT-A-006                00
TRX-D-000054ACT-D-006  00000000000020260217101530XFER-FROM-BANK_A-ACT-A-007              00
TRX-D-000055ACT-D-001  00000000000020260217101530XFER-FROM-BANK_B-ACT-B-004              00
TRX-D-000056ACT-D-001  00000000000020260217101530XFER-FROM-BANK_B-ACT-B-003              00
TRX-D-000057ACT-D-006  00000000000020260217101530XFER-FROM-BANK_C-ACT-C-005              00
TRX-D-000058ACT-D-005  00000000000020260217101530XFER-FROM-BANK_C-ACT-C-001              00
TRX-D-000059ACT-D-001  00000000000020260217101530XFER-FROM-BANK_A-ACT-A-008              00
TRX-D-000060ACT-D-002  00000000000020260217101530XFER-TO-BANK_A-ACT-A-005                00
TRX-D-000061ACT-D-004  00000000000020260217101530XFER-FROM-BANK_A-ACT-A-006              00
TRX-D-000062ACT-D-006  00000000000020260217101530XFER-FROM-BANK_B-ACT-B-002              00
TRX-D-000063ACT-D-006  00000000000020260217101530XFER-FROM-BANK_C-ACT-C-007              00
TRX-D-000064ACT-D-002  00000000000020260217101530XFER-FROM-BANK_A-ACT-A-003              00
TRX-D-000065ACT-D-005  00000000000020260217101530XFER-FROM-BANK_B-ACT-B-005              00
TRX-D-000066ACT-D-006  00000000000020260217101530XFER-FROM-BANK_B-ACT-B-005              00
TRX-D-000067ACT-D-004  00000000000020260217101530XFER-TO-BANK_C-ACT-C-007                00
TRX-D-000068ACT-D-006  00000000000020260217101530XFER-FROM-BANK_E-ACT-E-008              00
TRX-D-000069ACT-D-001  00000000000020260217101530XFER-FROM-BANK_C-ACT-C-008              00
TRX-D-000070ACT-D-001  00000000000020260217101530XFER-FROM-BANK_B-ACT-B-007              00
TRX-D-000071ACT-D-005  00000000000020260217101530XFER-FROM-BANK_B-ACT-B-006              00
TRX-D-000072ACT-D-006  00000000000020260217101530XFER-TO-BANK_C-ACT-C-007                00
TRX-D-000073ACT-D-003  00000000000020260217101530XFER-FROM-BANK_E-ACT-E-002              00
TRX-D-000074ACT-D-006  00000000000020260217101530XFER-FROM-BANK_C-ACT-C-002              00
TRX-D-000075ACT-D-006  00000000000020260217101530XFER-FROM-BANK_E-ACT-E-004              00
TRX-D-000076ACT-D-004  00000000000020260217101530XFER-FROM-BANK_C-ACT-C-001              00
TRX-D-000077ACT-D-006  00000000000020260217101530XFER-FROM-BANK_B-ACT-B-007              00
TRX-D-000078ACT-D-006  00000000000020260217101530XFER-FROM-BANK_E-ACT-E-002              00
TRX-D-000079ACT-D-004  00000000000020260217101530XFER-FROM-BANK_E-ACT-E-003              00
TRX-D-000080ACT-D-004  00000000000020260217101530XFER-FROM-BANK_B-ACT-B-001              00
TRX-D-000081ACT-D-003  00000000000020260217101530XFER-FROM-BANK_C-ACT-C-005              00
TRX-D-000082ACT-D-005  00000000000020260217101530XFER-FROM-BANK_C-ACT-C-003              00
TRX-D-000083ACT-D-002  00000000000020260217101530XFER-FROM-BANK_B-ACT-B-006              00
TRX-D-000084ACT-D-001  00000000000020260217101530XFER-TO-BANK_E-ACT-E-008                00
TRX-D-000085ACT-D-006  00000000000020260217101530XFER-FROM-BANK_E-ACT-E-006              00
TRX-D-000086ACT-D-006  00000000000020260217101530XFER-TO-BANK_C-ACT-C-003                00
TRX-D-000087ACT-D-005  00000000000020260217101530XFER-FROM-BANK_B-ACT-B-002              00
TRX-D-000088ACT-D-002  00000000000020260217101530XFER-FROM-BANK_A-ACT-A-006              00
TRX-D-000089ACT-D-001  00000000000020260217101530XFER-TO-BANK_B-ACT-B-007                00
TRX-D-000090ACT-D-003  00000000000020260217101530XFER-FROM-BANK_C-ACT-C-004              00
TRX-D-000091ACT-D-006  00000000000020260217101530XFER-TO-BANK_E-ACT-E-005                00
TRX-D-000092ACT-D-003  00000000000020260217101530XFER-FROM-BANK_B-ACT-B-001              00
TRX-D-000093ACT-D-003  00000000000020260217101530XFER-FROM-BANK_E-ACT-E-003              00
TRX-D-000094ACT-D-004  00000000000020260217101530XFER-FROM-BANK_E-ACT-E-006              00
TRX-D-000095ACT-D-002  00000000000020260217101530XFER-FROM-BANK_C-ACT-C-002              00
TRX-D-000096ACT-D-002  00000000000020260217101530XFER-FROM-BANK_B-ACT-B-002              00
TRX-D-000097ACT-D-004  00000000000020260217101530XFER-TO-BANK_B-ACT-B-005                00
TRX-D-000098ACT-D-004  00000000000020260217101530XFER-TO-BANK_B-ACT-B-003                00
TRX-D-000099ACT-D-001  00000000000020260217101530XFER-FROM-BANK_A-ACT-A-003              00
TRX-D-000100ACT-D-001  00000000000020260217101530XFER-TO-BANK_C-ACT-C-004                00
TRX-D-000101ACT-D-003  00000000000020260217101530XFER-TO-BANK_B-ACT-B-001                00
TRX-D-000102ACT-D-002  00000000000020260217101530XFER-FROM-BANK_E-ACT-E-006              00
TRX-D-000103ACT-D-003  00000000000020260217101530XFER-FROM-BANK_A-ACT-A-001              00
TRX-D-000104ACT-D-002  00000000000020260217101530XFER-TO-BANK_A-ACT-A-007                00
TRX-D-000105ACT-D-002  00000000000020260217101530XFER-TO-BANK_C-ACT-C-008                00
TRX-D-000106ACT-D-005  00000000000020260217101530XFER-FROM-BANK_B-ACT-B-004              00
TRX-D-000107ACT-D-003  00000000000020260217101530XFER-TO-BANK_A-ACT-A-002                00
TRX-D-000108ACT-D-001  00000000000020260217101530XFER-TO-BANK_E-ACT-E-008                00
TRX-D-000109ACT-D-004  00000000000020260217101530XFER-TO-BANK_A-ACT-A-001                00
TRX-D-000110ACT-D-003  00000000000020260217101530XFER-TO-BANK_C-ACT-C-007                00
TRX-D-000111ACT-D-006  00000000000020260217101530XFER-TO-BANK_E-ACT-E-003                00
TRX-D-000112ACT-D-004  00000000000020260217101530XFER-FROM-BANK_E-ACT-E-003              00
TRX-D-000113ACT-D-001  00000000000020260217101530XFER-FROM-BANK_A-ACT-A-006              00
TRX-D-000114ACT-D-002  00000000000020260217101530XFER-FROM-BANK_B-ACT-B-002              00
TRX-D-000115ACT-D-006  00000000000020260217101530XFER-TO-BANK_E-ACT-E-004                00
TRX-D-000116ACT-D-004  00000000000020260217101530XFER-FROM-BANK_C-ACT-C-008              00
TRX-D-000117ACT-D-004  00000000000020260217101530XFER-TO-BANK_C-ACT-C-003                00
TRX-D-000118ACT-D-002  00000000000020260217101530XFER-FROM-BANK_A-ACT-A-007              00
TRX-D-000119ACT-D-001  00000000000020260217101530XFER-TO-BANK_B-ACT-B-005                00
TRX-D-000120ACT-D-002  00000000000020260217101530XFER-FROM-BANK_A-ACT-A-002              00
TRX-D-000121ACT-D-002  00000000000020260217101530XFER-FROM-BANK_A-ACT-A-005              00
TRX-D-000122ACT-D-004  00000000000020260217101530XFER-FROM-BANK_E-ACT-E-006              00
TRX-D-000123ACT-D-003  00000000000020260217101530XFER-TO-BANK_E-ACT-E-007                00
TRX-D-000124ACT-D-005  00000000000020260217101530XFER-FROM-BANK_E-ACT-E-004              00
TRX-D-000125ACT-D-006  00000000000020260217101530XFER-TO-BANK_A-ACT-A-004                00
TRX-D-000126ACT-D-004  00000000000020260217101530XFER-TO-BANK_A-ACT-A-008                00
TRX-D-000127ACT-D-006  00000000000020260217101530XFER-TO-BANK_A-ACT-A-006                00
TRX-D-000128ACT-D-003  00000000000020260217101530XFER-FROM-BANK_B-ACT-B-001              00
TRX-D-000129ACT-D-001  00000000000020260217101530XFER-TO-BANK_B-ACT-B-003                00
TRX-D-000130ACT-D-003  00000000000020260217101530XFER-FROM-BANK_C-ACT-C-002              00
TRX-D-000131ACT-D-003  00000000000020260217101530XFER-FROM-BANK_C-ACT-C-003              00
TRX-D-000132ACT-D-004  00000000000020260217101530XFER-FROM-BANK_E-ACT-E-008              00
TRX-D-000133ACT-D-005  00000000000020260217101530XFER-FROM-BANK_C-ACT-C-006              00
TRX-D-000134ACT-D-001  00000000000020260217101530XFER-TO-BANK_E-ACT-E-004                00
TRX-D-000135ACT-D-006  00000000000020260217101530XFER-TO-BANK_B-ACT-B-003                00
TRX-D-000136ACT-D-006  00000000000020260217101530XFER-FROM-BANK_A-ACT-A-002              00
TRX-D-000137ACT-D-002  00000000000020260217101530XFER-TO-BANK_A-ACT-A-008                00
TRX-D-000138ACT-D-003  00000000000020260217101530XFER-FROM-BANK_B-ACT-B-001              00
TRX-D-000139ACT-D-001  00000000000020260217101530XFER-TO-BANK_A-ACT-A-001                00
TRX-D-000140ACT-D-005  00000000000020260217101530XFER-FROM-BANK_A-ACT-A-001              00
TRX-D-000141ACT-D-002  00000000000020260217101530XFER-FROM-BANK_B-ACT-B-005              00
TRX-D-000142ACT-D-001  00000000000020260217101530XFER-TO-BANK_E-ACT-E-004                00
TRX-D-000143ACT-D-005  00000000000020260217101530XFER-FROM-BANK_E-ACT-E-002              00
TRX-D-000144ACT-D-006  00000000000020260217101530XFER-FROM-BANK_B-ACT-B-007              00
TRX-D-000145ACT-D-005  00000000000020260217101530XFER-FROM-BANK_B-ACT-B-002              00
TRX-D-000146ACT-D-003  00000000000020260217101530XFER-TO-BANK_C-ACT-C-006                00
TRX-D-000147ACT-D-004  00000000000020260217101530XFER-TO-BANK_B-ACT-B-003                00
TRX-D-000148ACT-D-006  00000000000020260217101530XFER-FROM-BANK_A-ACT-A-001              00
TRX-D-000149ACT-D-003  00000000000020260217101530XFER-TO-BANK_E-ACT-E-003                00
TRX-D-000150ACT-D-006  00000000000020260217101530XFER-TO-BANK_E-ACT-E-006                00
TRX-D-000151ACT-D-002  00000000000020260217101530XFER-TO-BANK_C-ACT-C-007                00
TRX-D-000152ACT-D-006  00000000000020260217101530XFER-TO-BANK_C-ACT-C-007                00
TRX-D-000153ACT-D-006  00000000000020260217101530XFER-FROM-BANK_A-ACT-A-004              00
TRX-D-000154ACT-D-004  00000000000020260217101530XFER-TO-BANK_E-ACT-E-003                00
TRX-D-000155ACT-D-001  00000000000020260217101530XFER-FROM-BANK_A-ACT-A-002              00
TRX-D-000156ACT-D-004  00000000000020260217101530XFER-FROM-BANK_E-ACT-E-001              00
TRX-D-000157ACT-D-001  00000000000020260217101530XFER-FROM-BANK_E-ACT-E-005              00
TRX-D-000158ACT-D-002  00000000000020260217101530XFER-FROM-BANK_A-ACT-A-002              00
TRX-D-000159ACT-D-004  00000000000020260217101530XFER-TO-BANK_C-ACT-C-002                00
TRX-D-000160ACT-D-001  00000000000020260217101530XFER-FROM-BANK_A-ACT-A-005              00
TRX-D-000161ACT-D-004  00000000000020260217101530XFER-TO-BANK_A-ACT-A-007                00
TRX-D-000162ACT-D-001  00000000000020260217101530XFER-FROM-BANK_E-ACT-E-006              00
TRX-D-000163ACT-D-006  00000000000020260217101530XFER-TO-BANK_B-ACT-B-002                00
TRX-D-000164ACT-D-005  00000000000020260217101530XFER-TO-BANK_C-ACT-C-005                00
TRX-D-000165ACT-D-005  00000000000020260217101530XFER-TO-BANK_A-ACT-A-001                00
TRX-D-000166ACT-D-001  00000000000020260217101530XFER-FROM-BANK_C-ACT-C-007              00
TRX-D-000167ACT-D-001  00000000000020260217101530XFER-FROM-BANK_B-ACT-B-007              00
TRX-D-000168ACT-D-003  00000000000020260217101530XFER-FROM-BANK_B-ACT-B-004              00
TRX-D-000169ACT-D-002  00000000000020260217101530XFER-TO-BANK_E-ACT-E-002                00
TRX-D-000170ACT-D-001  00000000000020260217101530XFER-TO-BANK_A-ACT-A-007                00
TRX-D-000171ACT-D-005  00000000000020260217101530XFER-FROM-BANK_E-ACT-E-006              00
TRX-D-000172ACT-D-006  00000000000020260217101530XFER-FROM-BANK_A-ACT-A-004              00
TRX-D-000173ACT-D-006  00000000000020260217101530XFER-TO-BANK_B-ACT-B-007                00
TRX-D-000174ACT-D-004  00000000000020260217101530XFER-FROM-BANK_C-ACT-C-003              00
TRX-D-000175ACT-D-006  00000000000020260223525401XFER-TO-BANK_A-ACT-A-004                00
TRX-D-000176ACT-D-006  00000000000020260223531697XFER-FROM-BANK_B-ACT-B-001              00
TRX-D-000177ACT-D-004  00000000000020260223532027XFER-FROM-BANK_C-ACT-C-005              00
TRX-D-000178ACT-D-004  00000000000020260223540578XFER-FROM-BANK_B-ACT-B-003              00
TRX-D-000179ACT-D-003  00000000000020260223541221XFER-FROM-BANK_A-ACT-A-006              00
TRX-D-000180ACT-D-006  00000000000020260223541584XFER-FROM-BANK_C-ACT-C-001              00
TRX-D-000181ACT-D-005  00000000000020260223542143XFER-TO-BANK_B-ACT-B-004                00
TRX-D-000182ACT-D-001  00000000000020260223542898XFER-FROM-BANK_B-ACT-B-002              00
TRX-D-000183ACT-D-004  00000000000020260223544214XFER-FROM-BANK_A-ACT-A-006              00
TRX-D-000184ACT-D-005  00000000000020260223550551XFER-FROM-BANK_B-ACT-B-003              00
TRX-D-000185ACT-D-003  00000000000020260223551477XFER-TO-BANK_E-ACT-E-007                00
TRX-D-000186ACT-D-004  00000000000020260223551822XFER-TO-BANK_B-ACT-B-001                00
TRX-D-000187ACT-D-002  00000000000020260223553577XFER-FROM-BANK_A-ACT-A-002              00
TRX-D-000188ACT-D-004  00000000000020260223554559XFER-FROM-BANK_B-ACT-B-007              00
TRX-D-000189ACT-D-001  00000000000020260223554652XFER-TO-BANK_C-ACT-C-005                00
TRX-D-000190ACT-D-006  00000000000020260223560381XFER-FROM-BANK_B-ACT-B-004              00
TRX-D-000191ACT-D-005  00000000000020260223562925XFER-FROM-BANK_B-ACT-B-005              00
TRX-D-000192ACT-D-001  00000000000020260223563901XFER-FROM-BANK_C-ACT-C-008              00
TRX-D-000193ACT-D-004  00000000000020260223565156XFER-TO-BANK_C-ACT-C-004                00
TRX-D-000194ACT-D-006  00000000000020260223592204XFER-TO-BANK_A-ACT-A-004                00
TRX-D-000195ACT-D-006  00000000000020260223594402XFER-FROM-BANK_B-ACT-B-001              00
TRX-D-000196ACT-D-004  00000000000020260223594733XFER-FROM-BANK_C-ACT-C-005              00
TRX-D-000197ACT-D-002  00000000000020260223000822Foundation                              00
TRX-D-000198ACT-D-006  00000000000020260223001015Fiduciary                               00
TRX-D-000199ACT-D-004  00000000000020260223001642Audit                                   00
TRX-D-000200ACT-D-004  00000000000020260223001824Foundation                              00
TRX-D-000201ACT-D-004  00000000000020260223003366XFER-FROM-BANK_B-ACT-B-003              00
TRX-D-000202ACT-D-003  00000000000020260223004020XFER-FROM-BANK_A-ACT-A-006              00
TRX-D-000203ACT-D-006  00000000000020260223004379XFER-FROM-BANK_C-ACT-C-001              00
TRX-D-000204ACT-D-005  00000000000020260223004958XFER-TO-BANK_B-ACT-B-004                00
TRX-D-000205ACT-D-001  00000000000020260223005725XFER-FROM-BANK_B-ACT-B-002              00
TRX-D-000206ACT-D-004  00000000000020260223011076XFER-FROM-BANK_A-ACT-A-006              00
TRX-D-000207ACT-D-005  00000000000020260223013405XFER-FROM-BANK_B-ACT-B-003              00
TRX-D-000208ACT-D-003  00000000000020260223014299XFER-TO-BANK_E-ACT-E-007                00
TRX-D-000209ACT-D-004  00000000000020260223014655XFER-TO-BANK_B-ACT-B-001                00
TRX-D-000210ACT-D-001  00000000000020260223015555Trust                                   00
TRX-D-000211ACT-D-002  00000000000020260223020421XFER-FROM-BANK_A-ACT-A-002              00
TRX-D-000212ACT-D-004  00000000000020260223021386XFER-FROM-BANK_B-ACT-B-007              00
TRX-D-000213ACT-D-001  00000000000020260223021484XFER-TO-BANK_C-ACT-C-005                00
TRX-D-000214ACT-D-006  00000000000020260223021803Fiduciary                               00
TRX-D-000215ACT-D-006  00000000000020260223023189XFER-FROM-BANK_B-ACT-B-004              00
TRX-D-000216ACT-D-003  00000000000020260223023392Endowment                               00
TRX-D-000217ACT-D-005  00000000000020260223025797XFER-FROM-BANK_B-ACT-B-005              00
TRX-D-000218ACT-D-001  00000000000020260223030800XFER-FROM-BANK_C-ACT-C-008              00
TRX-D-000219ACT-D-004  00000000000020260223032135XFER-TO-BANK_C-ACT-C-004                00
TRX-D-000220ACT-D-006  00000000000020260223033579Foundation                              00
TRX-D-000221ACT-D-006  00000000000020260223034783XFER-TO-BANK_E-ACT-E-002                00
TRX-D-000222ACT-D-005  00000000000020260223035227Endowment                               00
TRX-D-000223ACT-D-003  00000000000020260223040000XFER-FROM-BANK_B-ACT-B-004              00
TRX-D-000224ACT-D-004  00000000000020260223040325XFER-FROM-BANK_B-ACT-B-004              00
TRX-D-000225ACT-D-005  00000000000020260223040551Trust                                   00
TRX-D-000226ACT-D-005  00000000000020260223040919XFER-FROM-BANK_E-ACT-E-004              00
TRX-D-000227ACT-D-004  00000000000020260223042685XFER-TO-BANK_E-ACT-E-002                00
TRX-D-000228ACT-D-001  00000000000020260223043579XFER-FROM-BANK_A-ACT-A-006              00
TRX-D-000229ACT-D-004  00000000000020260223044683XFER-FROM-BANK_A-ACT-A-002              00
TRX-D-000230ACT-D-004  00000000000020260223045905XFER-FROM-BANK_C-ACT-C-005              00
TRX-D-000231ACT-D-003  00000000000020260223050328XFER-FROM-BANK_E-ACT-E-007              00
TRX-D-000232ACT-D-006  00000000000020260223050908XFER-FROM-BANK_C-ACT-C-007              00
TRX-D-000233ACT-D-006  00000000000020260223051227XFER-FROM-BANK_C-ACT-C-003              00
TRX-D-000234ACT-D-005  00000000000020260223052484XFER-FROM-BANK_B-ACT-B-005              00
TRX-D-000235ACT-D-006  00000000000020260223053388XFER-TO-BANK_C-ACT-C-007                00
TRX-D-000236ACT-D-003  00000000000020260223054132Foundation                              00
TRX-D-000237ACT-D-006  00000000000020260223055680XFER-FROM-BANK_E-ACT-E-008              00
TRX-D-000238ACT-D-002 I00000199987520260223060225Monthly interest credit — ACT-D-002   00
TRX-D-000239ACT-D-004 I00000040833320260223060225Monthly interest credit — ACT-D-004   00
TRX-D-000240ACT-D-006 I00000250000020260223060225Monthly interest credit — ACT-D-006   00
TRX-D-000241ACT-D-002  00000000000020260223060793XFER-FROM-BANK_A-ACT-A-007              00
TRX-D-000242ACT-D-003  00000000000020260223060877Custodial                               00
TRX-D-000243ACT-D-001  00000000000020260223060961Audit                                   00
TRX-D-000244ACT-D-005  00000000000020260223062040XFER-FROM-BANK_A-ACT-A-008              00
TRX-D-000245ACT-D-004  00000000000020260223062127XFER-TO-BANK_B-ACT-B-007                00
TRX-D-000246ACT-D-002  00000000000020260223063900Regulatory                              00
TRX-D-000247ACT-D-001  00000000000020260223064466Custodial                               00
TRX-D-000248ACT-D-004  00000000000020260223070517XFER-FROM-BANK_A-ACT-A-008              00
TRX-D-000249ACT-D-003  00000000000020260223071213XFER-TO-BANK_A-ACT-A-003                00
TRX-D-000250ACT-D-006  00000000000020260223072370XFER-FROM-BANK_A-ACT-A-005              00
TRX-D-000251ACT-D-005  00000000000020260223073214Foundation                              00
TRX-D-000252ACT-D-002  00000000000020260223073889XFER-FROM-BANK_A-ACT-A-006              00
TRX-D-000253ACT-D-006  00000000000020260223075195XFER-FROM-BANK_A-ACT-A-004              00
TRX-D-000254ACT-D-001  00000000000020260223075793Foundation                              00
TRX-D-000255ACT-D-005  00000000000020260223080966XFER-TO-BANK_C-ACT-C-004                00
TRX-D-000256ACT-D-002  00000000000020260223081854XFER-FROM-BANK_E-ACT-E-006              00
TRX-D-000257ACT-D-006  00000000000020260223082896XFER-FROM-BANK_A-ACT-A-008              00
TRX-D-000258ACT-D-006  00000000000020260223083569XFER-FROM-BANK_C-ACT-C-004              00
TRX-D-000259ACT-D-006  00000118455520260223101658|STL-20260223-000002                    00
TRX-D-000260ACT-D-006  00000216587120260223103917|STL-20260223-000008                    00
TRX-D-000261ACT-D-004  00000054325420260223104239|STL-20260223-000009                    00
TRX-D-000262ACT-D-002  00000367005820260223110351grant                                   00
TRX-D-000263ACT-D-001 T00000129079220260223110450Collateral                              00
TRX-D-000264ACT-D-006  00000027042320260223110545fee                                     00
TRX-D-000265ACT-D-004  00000137317620260223111149expense                                 00
TRX-D-000266ACT-D-004  00000235574820260223111326grant                                   00
TRX-D-000267ACT-D-004  00000171205720260223112835|STL-20260223-000019                    00
TRX-D-000268ACT-D-003  00000017645820260223113493|STL-20260223-000021                    00
TRX-D-000269ACT-D-006  00000148148820260223113855|STL-20260223-000022                    00
TRX-D-000270ACT-D-005  00000391165120260223114172|STL-20260223-000024                    00
TRX-D-000271ACT-D-001  00000219117520260223114911|STL-20260223-000025                    00
TRX-D-000272ACT-D-004  00000013504420260223120222|STL-20260223-000028                    00
TRX-D-000273ACT-D-005  00000211567120260223122546|STL-20260223-000034                    00
TRX-D-000274ACT-D-003  00000427096720260223123427|STL-20260223-000037                    00
TRX-D-000275ACT-D-004  00000159174120260223123773|STL-20260223-000038                    00
TRX-D-000276ACT-D-002 T00000394216620260223124118Institutional                           00
TRX-D-000277ACT-D-001  00000291092120260223124644fund                                    00
TRX-D-000278ACT-D-002  00000003771920260223125521|STL-20260223-000041                    00
TRX-D-000279ACT-D-005 T00000388236320260223130131Collateral                              00
TRX-D-000280ACT-D-004  00000230708220260223130484|STL-20260223-000043                    00
TRX-D-000281ACT-D-001  00000148198120260223130573|STL-20260223-000044                    00
TRX-D-000282ACT-D-006  00000069268620260223130883fee                                     00
TRX-D-000283ACT-D-006  00000137421320260223132288|STL-20260223-000048                    00
TRX-D-000284ACT-D-003  00000219161420260223132500payout                                  00
TRX-D-000285ACT-D-005  00000236242320260223134798|STL-20260223-000054                    00
TRX-D-000286ACT-D-001  00000089872820260223135771|STL-20260223-000057                    00
TRX-D-000287ACT-D-004  00000242999820260223141012|STL-20260223-000060                    00
TRX-D-000288ACT-D-006  00000291892920260223142410grant                                   00
TRX-D-000289ACT-D-006  00000354147920260223143609|STL-20260223-000066                    00
TRX-D-000290ACT-D-005  00000273615520260223144047payout                                  00
TRX-D-000291ACT-D-003  00000047914120260223144823|STL-20260223-000068                    00
TRX-D-000292ACT-D-004  00000082509220260223145151|STL-20260223-000069                    00
TRX-D-000293ACT-D-005  00000409520220260223145381fund                                    00
TRX-D-000294ACT-D-005  00000045243820260223145753|STL-20260223-000070                    00
TRX-D-000295ACT-D-004  00000340639720260223151536|STL-20260223-000076                    00
TRX-D-000296ACT-D-001  00000019567920260223152463|STL-20260223-000078                    00
TRX-D-000297ACT-D-004  00000092651020260223153550|STL-20260223-000080                    00
TRX-D-000298ACT-D-004  00000091621820260223154761|STL-20260223-000083                    00
TRX-D-000299ACT-D-003  00000005659220260223155175|STL-20260223-000084                    00
TRX-D-000300ACT-D-006  00000064567320260223155770|STL-20260223-000085                    00
TRX-D-000301ACT-D-006  00000078574820260223160098|STL-20260223-000086                    00
TRX-D-000302ACT-D-005  00000087851920260223161313|STL-20260223-000089                    00
TRX-D-000303ACT-D-002 T00000161326920260223162101Liquidity                               00
TRX-D-000304ACT-D-006  00000053092020260223162258|STL-20260223-000092                    00
TRX-D-000305ACT-D-003  00000201562020260223163008grant                                   00
TRX-D-000306ACT-D-006  00000028623020260223164551|STL-20260223-000097                    00
TRX-D-000307ACT-D-002 I00000200938820260223165120Monthly interest credit — ACT-D-002   00
TRX-D-000308ACT-D-004 I00000041054720260223165120Monthly interest credit — ACT-D-004   00
TRX-D-000309ACT-D-006 I00000250989720260223165120Monthly interest credit — ACT-D-006   00
TRX-D-000310ACT-D-002  00000013293120260223165683|STL-20260223-000098                    00
TRX-D-000311ACT-D-003  00000125714020260223165766services                                00
TRX-D-000312ACT-D-001  00000067137720260223165853expense                                 00
TRX-D-000313ACT-D-005  00000005131820260223170926|STL-20260223-000101                    00
TRX-D-000314ACT-D-004  00000173787220260223171012|STL-20260223-000102                    00
TRX-D-000315ACT-D-002  00000118649420260223172857assessment                              00
TRX-D-000316ACT-D-004  00000010758220260223174097|STL-20260223-000109                    00
TRX-D-000317ACT-D-001 T00000207128220260223174196Institutional                           00
TRX-D-000318ACT-D-004  00000016087220260223175756|STL-20260223-000113                    00
TRX-D-000319ACT-D-006  00000353823220260223180736fund                                    00
TRX-D-000320ACT-D-006  00000004684120260223181652|STL-20260223-000117                    00
TRX-D-000321ACT-D-005  00000321683220260223182531grant                                   00
TRX-D-000322ACT-D-002  00000009274520260223183211|STL-20260223-000121                    00
TRX-D-000323ACT-D-006  00000006390820260223184505|STL-20260223-000124                    00
TRX-D-000324ACT-D-001  00000165181620260223185119grant                                   00
TRX-D-000325ACT-D-006  00000118455520260223415999                                        00
TRX-D-000326ACT-D-005  00000216587120260223422212                                        00
TRX-D-000327ACT-D-001  00000054325420260223422540                                        00
TRX-D-000328ACT-D-003  00000367005820260223424596                                        00
TRX-D-000329ACT-D-002 T00000129079220260223424688                                        00
TRX-D-000330ACT-D-006  00000027042320260223424783                                        00
TRX-D-000331ACT-D-001  00000137317620260223425368                                        00
TRX-D-000332ACT-D-002  00000235574820260223425556                                        00
TRX-D-000333ACT-D-002  00000171205720260223431018                                        00
TRX-D-000334ACT-D-005  00000017645820260223431632                                        00
TRX-D-000335ACT-D-005  00000148148820260223431995                                        00
TRX-D-000336ACT-D-003  00000391165120260223432567                                        00
TRX-D-000337ACT-D-001  00000219117520260223433301                                        00
TRX-D-000338ACT-D-001  00000013504420260223434605                                        00
TRX-D-000339ACT-D-003  00000211567120260223440922                                        00
TRX-D-000340ACT-D-005  00000427096720260223441794                                        00
TRX-D-000341ACT-D-002  00000159174120260223442127                                        00
TRX-D-000342ACT-D-003 T00000394216620260223442477                                        00
TRX-D-000343ACT-D-002  00000291092120260223443007                                        00
TRX-D-000344ACT-D-003  00000003771920260223443873                                        00
TRX-D-000345ACT-D-002 T00000388236320260223444477                                        00
TRX-D-000346ACT-D-002  00000230708220260223444837                                        00
TRX-D-000347ACT-D-002  00000148198120260223444924                                        00
TRX-D-000348ACT-D-005  00000069268620260223445234                                        00
TRX-D-000349ACT-D-006  00000137421320260223450619                                        00
TRX-D-000350ACT-D-005  00000219161420260223450818                                        00
TRX-D-000351ACT-D-003  00000236242320260223453163                                        00
TRX-D-000352ACT-D-002  00000089872820260223454153                                        00
TRX-D-000353ACT-D-002  00000242999820260223455400                                        00
TRX-D-000354ACT-D-006  00000291892920260223460800                                        00
TRX-D-000355ACT-D-006  00000354147920260223461981                                        00
TRX-D-000356ACT-D-003  00000273615520260223462427                                        00
TRX-D-000357ACT-D-006  00000047914120260223463222                                        00
TRX-D-000358ACT-D-002  00000082509220260223463568                                        00
TRX-D-000359ACT-D-004  00000409520220260223463798                                        00
TRX-D-000360ACT-D-004  00000045243820260223464183                                        00
TRX-D-000361ACT-D-001  00000340639720260223465959                                        00
TRX-D-000362ACT-D-001  00000019567920260223470880                                        00
TRX-D-000363ACT-D-006  00000014963520260223472022                                        00
TRX-D-000364ACT-D-004  00000138619920260223472120                                        00
TRX-D-000365ACT-D-006  00000005659220260223473703                                        00
TRX-D-000366ACT-D-006  00000064567320260223474284                                        00
TRX-D-000367ACT-D-005  00000078574820260223474615                                        00
TRX-D-000368ACT-D-004  00000087851920260223475866                                        00
TRX-D-000369ACT-D-002 T00000161326920260223480656                                        00
TRX-D-000370ACT-D-006  00000053092020260223480814                                        00
TRX-D-000371ACT-D-006  00000201562020260223481567                                        00
TRX-D-000372ACT-D-005  00000028623020260223483151                                        00
TRX-D-000373ACT-D-002 I00000202031220260223483721Monthly interest credit — ACT-D-002   00
TRX-D-000374ACT-D-004 I00000041551520260223483721Monthly interest credit — ACT-D-004   00
TRX-D-000375ACT-D-006 I00000252368220260223483721Monthly interest credit — ACT-D-006   00
TRX-D-000376ACT-D-003  00000013293120260223484292                                        00
TRX-D-000377ACT-D-006  00000125714020260223484373                                        00
TRX-D-000378ACT-D-001  00000067137720260223484451                                        00
TRX-D-000379ACT-D-004  00000005131820260223485505                                        00
TRX-D-000380ACT-D-002  00000173787220260223485607                                        00
TRX-D-000381ACT-D-003  00000118649420260223491430                                        00
TRX-D-000382ACT-D-001 T00000207128220260223492768                                        00
TRX-D-000383ACT-D-001  00000016087220260223494315                                        00
TRX-D-000384ACT-D-006  00000353823220260223495269                                        00
TRX-D-000385ACT-D-006  00000004684120260223500200                                        00
TRX-D-000386ACT-D-003  00000321683220260223501040                                        00
TRX-D-000387ACT-D-003  00000009274520260223501683                                        00
TRX-D-000388ACT-D-005  00000006390820260223502989                                        00
TRX-D-000389ACT-D-002  00000165181620260223503576                                        00
TRX-D-000390ACT-D-005 T00000304119620260223505090                                        00
TRX-D-000391ACT-D-001  00000210554820260223505515                                        00
TRX-D-000392ACT-D-004  00000010627020260223510097                                        00
TRX-D-000393ACT-D-005  00000247747820260223510478                                        00
TRX-D-000394ACT-D-003  00000104986820260223513503                                        00
TRX-D-000395ACT-D-006  00000010773320260223514127                                        00
TRX-D-000396ACT-D-004  00000366307120260223515627                                        00
TRX-D-000397ACT-D-006  00000120079320260223520673                                        00
TRX-D-000398ACT-D-002  00000093441820260223522479                                        00
TRX-D-000399ACT-D-006  00000194553320260223523120                                        00
TRX-D-000400ACT-D-001  00000068833920260223523264                                        00
TRX-D-000401ACT-D-001  00000337637620260223523455                                        00
TRX-D-000402ACT-D-001  00000051286620260223523961                                        00
TRX-D-000403ACT-D-006  00000359015320260223524553                                        00
TRX-D-000404ACT-D-006  00000013591220260223525537                                        00
TRX-D-000405ACT-D-006  00000328250520260223531297                                        00
TRX-D-000406ACT-D-002  00000413909320260223532486                                        00
TRX-D-000407ACT-D-004  00000148730320260223532984                                        00
TRX-D-000408ACT-D-001  00000360853520260223533187                                        00
TRX-D-000409ACT-D-003  00000215910520260223533512                                        00
TRX-D-000410ACT-D-004  00000169710820260223534059                                        00
TRX-D-000411ACT-D-006  00000118132020260223535118                                        00
TRX-D-000412ACT-D-003 T00000321896620260223535553                                        00
TRX-D-000413ACT-D-001  00000012140020260223540138                                        00
TRX-D-000414ACT-D-003 T00000371562320260223540242                                        00
TRX-D-000415ACT-D-005  00000295269420260223540683                                        00
TRX-D-000416ACT-D-004  00000207648520260223541207                                        00
TRX-D-000417ACT-D-001  00000013343920260223542413                                        00
TRX-D-000418ACT-D-006  00000144450520260223544271                                        00
TRX-D-000419ACT-D-002 T00000288928120260223545115                                        00
TRX-D-000420ACT-D-002  00000128829720260223545637                                        00
TRX-D-000421ACT-D-005  00000028704520260223551745                                        00
TRX-D-000422ACT-D-002  00000030875920260223552880                                        00
TRX-D-000423ACT-D-001  00000209086320260223552964                                        00
TRX-D-000424ACT-D-001  00000024407320260223555215                                        00
TRX-D-000425ACT-D-003  00000006335520260223555551                                        00
TRX-D-000426ACT-D-004  00000292770720260223560314                                        00
TRX-D-000427ACT-D-002  00000095097520260223560678                                        00
TRX-D-000428ACT-D-001  00000031800020260223562098                                        00
TRX-D-000429ACT-D-001 T00000173343920260223562391                                        00
TRX-D-000430ACT-D-005  00000013164920260223564054                                        00
TRX-D-000431ACT-D-001  00000422959020260223564958                                        00
TRX-D-000432ACT-D-005  00000050584820260223565288                                        00
TRX-D-000433ACT-D-003  00000034736420260223574139                                        00
TRX-D-000434ACT-D-003  00000038770720260223574487                                        00
TRX-D-000435ACT-D-006  00000017763720260223575158                                        00
TRX-D-000436ACT-D-003 T00000364531220260223575572                                        00
TRX-D-000437ACT-D-002  00000163385120260223581521                                        00
TRX-D-000438ACT-D-002  00000003447020260223581879                                        00
TRX-D-000439ACT-D-003  00000018104220260223582549                                        00
TRX-D-000440ACT-D-003  00000441649520260223582626                                        00
TRX-D-000441ACT-D-005  00000280618020260223582709                                        00
TRX-D-000442ACT-D-005  00000155654720260223583584                                        00
TRX-D-000443ACT-D-002 T00000391749020260223584341                                        00
TRX-D-000444ACT-D-005 T00000318639820260223584424                                        00
TRX-D-000445ACT-D-004  00000023868220260223590538                                        00
TRX-D-000446ACT-D-005  00000216758020260223590978                                        00
TRX-D-000447ACT-D-005  00000448987620260223591163                                        00
TRX-D-000448ACT-D-005  00000367556020260223591943                                        00
TRX-D-000449ACT-D-004  00000199465120260223593933                                        00
TRX-D-000450ACT-D-005  00000046750520260223594518                                        00
TRX-D-000451ACT-D-005  00000090516220260223000153                                        00
TRX-D-000452ACT-D-001  00000037816320260223001079                                        00
TRX-D-000453ACT-D-005  00000106186620260223001730                                        00
TRX-D-000454ACT-D-003  00000309538620260223001825                                        00
TRX-D-000455ACT-D-002  00000387739920260223002193                                        00
TRX-D-000456ACT-D-004  00000019607820260223002771                                        00
TRX-D-000457ACT-D-005  00000098674620260223003446                                        00
TRX-D-000458ACT-D-005  00000093547820260223010187                                        00
TRX-D-000459ACT-D-006  00000363722920260223010613                                        00
TRX-D-000460ACT-D-005  00000022912520260223011191                                        00
TRX-D-000461ACT-D-006  00000414594620260223011306                                        00
TRX-D-000462ACT-D-001 T00000146111020260223012279                                        00
TRX-D-000463ACT-D-006  00000279070820260223012363                                        00
TRX-D-000464ACT-D-005  00000241702620260223021324                                        00
TRX-D-000465ACT-D-004  00000050473520260223021648                                        00
TRX-D-000466ACT-D-002  00000024474320260223021979                                        00
TRX-D-000467ACT-D-004  00000120308120260223022073                                        00
TRX-D-000468ACT-D-003  00000013422220260223023617                                        00
TRX-D-000469ACT-D-003  00000001334820260223024281                                        00
TRX-D-000470ACT-D-006 T00000197221320260223024361                                        00
TRX-D-000471ACT-D-004  00000241608520260223025557                                        00
TRX-D-000472ACT-D-003  00000254322020260223030492                                        00
TRX-D-000473ACT-D-002  00000030670020260223031420                                        00
TRX-D-000474ACT-D-004  00000107826620260223032548                                        00
TRX-D-000475ACT-D-004  00000066416420260223033234                                        00
TRX-D-000476ACT-D-006  00000117258220260223033919                                        00
TRX-D-000477ACT-D-001  00000435828120260223034337                                        00
TRX-D-000478ACT-D-003  00000153393420260223035237                                        00
TRX-D-000479ACT-D-004  00000015787220260223035574                                        00
TRX-D-000480ACT-D-004  00000123249720260223040566                                        00
TRX-D-000481ACT-D-005  00000038116220260223041309                                        00
TRX-D-000482ACT-D-005  00000004310220260223041712                                        00
TRX-D-000483ACT-D-005  00000012333620260223042028                                        00
TRX-D-000484ACT-D-006  00000029883720260223042116                                        00
TRX-D-000485ACT-D-002  00000189077520260223042432                                        00
TRX-D-000486ACT-D-003  00000234080020260223043285                                        00
TRX-D-000487ACT-D-003 T00000238021220260223043536                                        00
TRX-D-000488ACT-D-001  00000111092620260223043889                                        00
TRX-D-000489ACT-D-002 T00000249879320260223044250                                        00
TRX-D-000490ACT-D-003  00000407550620260223044337                                        00
TRX-D-000491ACT-D-003  00000168010920260223044419                                        00
TRX-D-000492ACT-D-003 T00000323378020260223044512                                        00
TRX-D-000493ACT-D-005 T00000185957120260223044874                                        00
TRX-D-000494ACT-D-006  00000118455520260224261583                                        00
TRX-D-000495ACT-D-006  00000216587120260224263909                                        00
TRX-D-000496ACT-D-004  00000054325420260224264268                                        00
TRX-D-000497ACT-D-002  00000367005820260224270409                                        00
TRX-D-000498ACT-D-001 T00000129079220260224270523                                        00
TRX-D-000499ACT-D-006  00000027042320260224270633                                        00
TRX-D-000500ACT-D-004  00000137317620260224271335                                        00
TRX-D-000501ACT-D-004  00000235574820260224271402                                        00
TRX-D-000502ACT-D-003  00000059022220260224272612                                        00
TRX-D-000503ACT-D-003  00000017645820260224273204                                        00
TRX-D-000504ACT-D-005  00000246935920260224273605                                        00
TRX-D-000505ACT-D-003  00000020020020260224274058                                        00
TRX-D-000506ACT-D-006  00000127685020260224274692                                        00
TRX-D-000507ACT-D-006  00000143040020260224280490                                        00
TRX-D-000508ACT-D-002  00000301906220260224280681                                        00
TRX-D-000509ACT-D-005  00000134256820260224281636                                        00
TRX-D-000510ACT-D-006  00000350710720260224281729                                        00
TRX-D-000511ACT-D-003  00000427096720260224282974                                        00
TRX-D-000512ACT-D-004  00000159174120260224283375                                        00
TRX-D-000513ACT-D-002 T00000394216620260224283745                                        00
TRX-D-000514ACT-D-001  00000291092120260224284152                                        00
TRX-D-000515ACT-D-002  00000003771920260224284954                                        00
TRX-D-000516ACT-D-005 T00000388236320260224285630                                        00
TRX-D-000517ACT-D-004  00000230708220260224285974                                        00
TRX-D-000518ACT-D-001  00000148198120260224290085                                        00
TRX-D-000519ACT-D-006  00000069268620260224290419                                        00
TRX-D-000520ACT-D-006  00000137421320260224291721                                        00
TRX-D-000521ACT-D-003  00000219161420260224291808                                        00
TRX-D-000522ACT-D-005  00000049339320260224292828                                        00
TRX-D-000523ACT-D-005  00000447009420260224292924                                        00
TRX-D-000524ACT-D-005  00000236242320260224294439                                        00
TRX-D-000525ACT-D-001  00000089872820260224295549                                        00
TRX-D-000526ACT-D-004  00000242999820260224300723                                        00
TRX-D-000527ACT-D-006  00000291892920260224302192                                        00
TRX-D-000528ACT-D-006  00000354147920260224303316                                        00
TRX-D-000529ACT-D-005  00000273615520260224303663                                        00
TRX-D-000530ACT-D-003  00000047914120260224304487                                        00
TRX-D-000531ACT-D-004  00000082509220260224304840                                        00
TRX-D-000532ACT-D-005  00000409520220260224305025                                        00
TRX-D-000533ACT-D-003  00000142047420260224305116                                        00
TRX-D-000534ACT-D-005  00000038904220260224311320                                        00
TRX-D-000535ACT-D-001  00000002882120260224313399                                        00
TRX-D-000536ACT-D-002  00000443611320260224314262                                        00
TRX-D-000537ACT-D-003  00000008275220260224315354                                        00
TRX-D-000538ACT-D-006  00000064567320260224315914                                        00
TRX-D-000539ACT-D-006  00000078574820260224320147                                        00
TRX-D-000540ACT-D-005  00000087851920260224321448                                        00
TRX-D-000541ACT-D-002 T00000161326920260224322262                                        00
TRX-D-000542ACT-D-006  00000053092020260224322374                                        00
TRX-D-000543ACT-D-003  00000201562020260224323182                                        00
TRX-D-000544ACT-D-005  00000118784020260224324331                                        00
TRX-D-000545ACT-D-003  00000056031620260224325099                                        00
TRX-D-000546ACT-D-005  00000017352920260224325472                                        00
TRX-D-000547ACT-D-006  00000045057220260224330091                                        00
TRX-D-000548ACT-D-006  00000022567720260224330810                                        00
TRX-D-000549ACT-D-002  00000320545220260224332425                                        00
TRX-D-000550ACT-D-001 T00000207128220260224333396                                        00
TRX-D-000551ACT-D-004  00000016087220260224334933                                        00
TRX-D-000552ACT-D-006  00000353823220260224335818                                        00
TRX-D-000553ACT-D-006  00000004684120260224340842                                        00
TRX-D-000554ACT-D-005  00000321683220260224341737                                        00
TRX-D-000555ACT-D-002  00000009274520260224342379                                        00
TRX-D-000556ACT-D-006  00000006390820260224343742                                        00
TRX-D-000557ACT-D-001  00000165181620260224344401                                        00
TRX-D-000558ACT-D-006 T00000304119620260224345934                                        00
TRX-D-000559ACT-D-002  00000283409320260224351567                                        00
TRX-D-000560ACT-D-003  00000074363820260224352567                                        00
TRX-D-000561ACT-D-005  00000130809920260224352944                                        00
TRX-D-000562ACT-D-006  00000189521320260224353124                                        00
TRX-D-000563ACT-D-001  00000014075320260224353927                                        00
TRX-D-000564ACT-D-002  00000151554420260224354149                                        00
TRX-D-000565ACT-D-003  00000010773320260224354494                                        00
TRX-D-000566ACT-D-005  00000366307120260224355907                                        00
TRX-D-000567ACT-D-006  00000120079320260224360890                                        00
TRX-D-000568ACT-D-004  00000077607720260224362955                                        00
TRX-D-000569ACT-D-004  00000045938620260224363945                                        00
TRX-D-000570ACT-D-002  00000189108020260224364057                                        00
TRX-D-000571ACT-D-002 I00000198321720260224365553Monthly interest credit — ACT-D-002   00
TRX-D-000572ACT-D-004 I00000041746720260224365553Monthly interest credit — ACT-D-004   00
TRX-D-000573ACT-D-006 I00000250350020260224365553Monthly interest credit — ACT-D-006   00
TRX-D-000574ACT-D-006  00000013591220260224370277                                        00
TRX-D-000575ACT-D-003  00000145732420260224371706                                        00
TRX-D-000576ACT-D-004 T00000238248720260224373089                                        00
TRX-D-000577ACT-D-002  00000148730320260224374640                                        00
TRX-D-000578ACT-D-001  00000325724220260224381131                                        00
TRX-D-000579ACT-D-006  00000113347920260224383490                                        00
TRX-D-000580ACT-D-004  00000013343920260224384864                                        00
TRX-D-000581ACT-D-006  00000144450520260224390768                                        00
TRX-D-000582ACT-D-005 T00000288928120260224391595                                        00
TRX-D-000583ACT-D-001  00000128829720260224392226                                        00
TRX-D-000584ACT-D-003  00000028704520260224394429                                        00
TRX-D-000585ACT-D-001  00000016426220260224395665                                        00
TRX-D-000586ACT-D-003  00000280970220260224400673                                        00
TRX-D-000587ACT-D-002  00000221857220260224401348                                        00
TRX-D-000588ACT-D-004  00000024407320260224403622                                        00
TRX-D-000589ACT-D-002  00000006335520260224403850                                        00
TRX-D-000590ACT-D-002  00000292770720260224404714                                        00
TRX-D-000591ACT-D-001  00000088677220260224405150                                        00
TRX-D-000592ACT-D-003  00000013164920260224410884                                        00
TRX-D-000593ACT-D-001  00000422959020260224411948                                        00
TRX-D-000594ACT-D-006  00000050584820260224412304                                        00
TRX-D-000595ACT-D-002  00000034736420260224423427                                        00
TRX-D-000596ACT-D-002  00000038770720260224423812                                        00
TRX-D-000597ACT-D-006  00000017763720260224424565                                        00
TRX-D-000598ACT-D-005 T00000364531220260224425074                                        00
TRX-D-000599ACT-D-004  00000163385120260224431110                                        00
TRX-D-000600ACT-D-001  00000003447020260224431492                                        00
TRX-D-000601ACT-D-005  00000018104220260224432218                                        00
TRX-D-000602ACT-D-002  00000441649520260224432313                                        00
TRX-D-000603ACT-D-006  00000280618020260224432416                                        00
TRX-D-000604ACT-D-006  00000155654720260224433286                                        00
TRX-D-000605ACT-D-001 T00000391749020260224434147                                        00
TRX-D-000606ACT-D-004 T00000318639820260224434234                                        00
TRX-D-000607ACT-D-004  00000079425820260224435861                                        00
TRX-D-000608ACT-D-003  00000012078620260224440978                                        00
TRX-D-000609ACT-D-002  00000097886220260224441326                                        00
TRX-D-000610ACT-D-006  00000034357020260224441683                                        00
TRX-D-000611ACT-D-004  00000305325420260224442141                                        00
TRX-D-000612ACT-D-003  00000410553520260224442718                                        00
TRX-D-000613ACT-D-002  00000368150620260224443065                                        00
TRX-D-000614ACT-D-006  00000091965720260224443901                                        00
TRX-D-000615ACT-D-001  00000314441620260224444348                                        00
TRX-D-000616ACT-D-002  00000022019220260224445175                                        00
TRX-D-000617ACT-D-001  00000037816320260224445542                                        00
TRX-D-000618ACT-D-004  00000055338320260224445885                                        00
TRX-D-000619ACT-D-004  00000340660820260224451155                                        00
TRX-D-000620ACT-D-002 T00000221031920260224452417                                        00
TRX-D-000621ACT-D-004  00000023026120260224452995                                        00
TRX-D-000622ACT-D-005  00000012856420260224453699                                        00
TRX-D-000623ACT-D-003  00000326237920260224460803                                        00
TRX-D-000624ACT-D-006  00000371847720260224461176                                        00
TRX-D-000625ACT-D-006  00000071520920260224461615                                        00
TRX-D-000626ACT-D-006  00000414594620260224461963                                        00
TRX-D-000627ACT-D-001 T00000146111020260224462893                                        00
TRX-D-000628ACT-D-003  00000279070820260224462990                                        00
TRX-D-000629ACT-D-006  00000241702620260224472127                                        00
TRX-D-000630ACT-D-002  00000050473520260224472478                                        00
TRX-D-000631ACT-D-004  00000024474320260224472833                                        00
TRX-D-000632ACT-D-005  00000120308120260224472933                                        00
TRX-D-000633ACT-D-005  00000013422220260224474615                                        00
TRX-D-000634ACT-D-005  00000001334820260224475189                                        00
TRX-D-000635ACT-D-004  00000134601820260224475324                                        00
TRX-D-000636ACT-D-001 T00000250551120260224475814                                        00
TRX-D-000637ACT-D-001  00000304362420260224475907                                        00
TRX-D-000638ACT-D-005  00000040962020260224480175                                        00
TRX-D-000639ACT-D-002  00000254322020260224480261                                        00
TRX-D-000640ACT-D-004  00000030670020260224481283                                        00
TRX-D-000641ACT-D-003  00000053969420260224482686                                        00
TRX-D-000642ACT-D-004  00000105389020260224483053                                        00
TRX-D-000643ACT-D-001 T00000324344320260224483252                                        00
TRX-D-000644ACT-D-002  00000153393420260224484269                                        00
TRX-D-000645ACT-D-005  00000015787220260224484542                                        00
TRX-D-000646ACT-D-005  00000123249720260224485894                                        00
TRX-D-000647ACT-D-006  00000038116220260224490802                                        00
TRX-D-000648ACT-D-006  00000004310220260224491172                                        00
TRX-D-000649ACT-D-003  00000012333620260224491478                                        00
TRX-D-000650ACT-D-002  00000418294920260224491668                                        00
TRX-D-000651ACT-D-006  00000012782320260224494035                                        00
TRX-D-000652ACT-D-006 T00000256280720260224495053                                        00
TRX-D-000653ACT-D-001  00000431038120260224495514                                        00
TRX-D-000654ACT-D-002  00000371278020260224495987                                        00
TRX-D-000655ACT-D-005  00000024591720260224500720                                        00
TRX-D-000656ACT-D-003  00000021198020260224501332                                        00
TRX-D-000657ACT-D-005  00000119390020260224502304                                        00
TRX-D-000658ACT-D-003  00000262777720260224502391                                        00
TRX-D-000659ACT-D-003  00000009379220260224503054                                        00
TRX-D-000660ACT-D-003  00000002046320260224505783                                        00
TRX-D-000661ACT-D-005  00000403172920260224510832                                        00
TRX-D-000662ACT-D-006  00000179040020260224511581                                        00
TRX-D-000663ACT-D-001  00000014199720260224512385                                        00
TRX-D-000664ACT-D-003  00000082415620260224512739                                        00
TRX-D-000665ACT-D-006  00000170157320260224514449                                        00
TRX-D-000666ACT-D-004  00000165913220260224515749                                        00
TRX-D-000667ACT-D-001  00000091259820260224520124                                        00
TRX-D-000668ACT-D-005  00000176878420260224520570                                        00
TRX-D-000669ACT-D-003  00000167298420260224521000                                        00
TRX-D-000670ACT-D-004  00000302562120260224523097                                        00
TRX-D-000671ACT-D-001  00000006395420260224523799                                        00
TRX-D-000672ACT-D-002  00000413600820260224525388                                        00
TRX-D-000673ACT-D-001  00000230643820260224525730                                        00
TRX-D-000674ACT-D-006  00000008568320260224534242                                        00
TRX-D-000675ACT-D-001  00000093493020260224535508                                        00
TRX-D-000676ACT-D-005  00000123054220260224540305                                        00
TRX-D-000677ACT-D-001  00000107318020260224541749                                        00
TRX-D-000678ACT-D-003  00000097577420260224542770                                        00
TRX-D-000679ACT-D-005  00000003839920260224543188                                        00
TRX-D-000680ACT-D-005  00000417382820260224543692                                        00
TRX-D-000681ACT-D-003  00000008145520260224544778                                        00
TRX-D-000682ACT-D-006  00000268047520260224552336                                        00
TRX-D-000683ACT-D-002  00000277431620260224553265                                        00
TRX-D-000684ACT-D-003 T00000110038620260224553481                                        00
TRX-D-000685ACT-D-003  00000438528820260224553756                                        00
TRX-D-000686ACT-D-002  00000321087320260224554049                                        00
TRX-D-000687ACT-D-001  00000103041520260224555464                                        00
TRX-D-000688ACT-D-003  00000362292520260224555551                                        00
TRX-D-000689ACT-D-005  00000025110820260224560159                                        00
TRX-D-000690ACT-D-001  00000007857220260224562505                                        00
TRX-D-000691ACT-D-001  00000019316620260224562744                                        00
TRX-D-000692ACT-D-003  00000131056520260224564005                                        00
TRX-D-000693ACT-D-002  00000044714520260224564726                                        00
TRX-D-000694ACT-D-001  00000203823920260224565170                                        00
TRX-D-000695ACT-D-006  00000122074720260224565401                                        00
TRX-D-000696ACT-D-005  00000008976120260224571120                                        00
TRX-D-000697ACT-D-003  00000023445720260224572595                                        00
TRX-D-000698ACT-D-002  00000118844120260224572683                                        00
TRX-D-000699ACT-D-005  00000004836920260224573731                                        00
TRX-D-000700ACT-D-005  00000146204620260224574174                                        00
TRX-D-000701ACT-D-004  00000019979620260224574789                                        00
TRX-D-000702ACT-D-005 T00000107324020260224574877                                        00
TRX-D-000703ACT-D-006  00000002714420260224580389                                        00
TRX-D-000704ACT-D-006  00000156943120260224580501                                        00
TRX-D-000705ACT-D-002  00000058381120260224581223                                        00
TRX-D-000706ACT-D-001 T00000132809520260224581320                                        00
TRX-D-000707ACT-D-002 T00000242171520260224581528                                        00
TRX-D-000708ACT-D-005  00000008195320260224581905                                        00
TRX-D-000709ACT-D-005  00000169805320260224582154                                        00
TRX-D-000710ACT-D-003  00000042701120260224582513                                        00
TRX-D-000711ACT-D-006  00000019146220260224582871                                        00
TRX-D-000712ACT-D-002  00000000986020260224583512                                        00
TRX-D-000713ACT-D-005  00000006263420260224583864                                        00
TRX-D-000714ACT-D-004  00000094926220260224583952                                        00
TRX-D-000715ACT-D-003  00000153657220260224585084                                        00
TRX-D-000716ACT-D-003 T00000318356020260224585192                                        00
TRX-D-000717ACT-D-003  00000073886820260224590018                                        00
TRX-D-000718ACT-D-003  00000074025920260224591166                                        00
TRX-D-000719ACT-D-002  00000435705520260224592710                                        00
TRX-D-000720ACT-D-002  00000094126520260224593795                                        00
TRX-D-000721ACT-D-006  00000019004620260224595013                                        00
TRX-D-000722ACT-D-006 T00000278095020260224595551                                        00
TRX-D-000723ACT-D-006  00000266724120260224000848                                        00
TRX-D-000724ACT-D-003  00000273578920260224001702                                        00
TRX-D-000725ACT-D-003  00000018252620260224002063                                        00
TRX-D-000726ACT-D-004  00000087132120260224004158                                        00
TRX-D-000727ACT-D-002  00000195709920260224004976                                        00
TRX-D-000728ACT-D-001  00000394074420260224005341                                        00
TRX-D-000729ACT-D-001  00000137203420260224011338                                        00
TRX-D-000730ACT-D-003  00000023422120260224011974                                        00
TRX-D-000731ACT-D-002  00000145231020260224012065                                        00
TRX-D-000732ACT-D-004 T00000127075120260224012734                                        00
TRX-D-000733ACT-D-004  00000110738620260224014045                                        00
TRX-D-000734ACT-D-002  00000366407720260224014141                                        00
TRX-D-000735ACT-D-002  00000002103520260224014785                                        00
TRX-D-000736ACT-D-005  00000192775320260224020451                                        00
TRX-D-000737ACT-D-004  00000093561620260224021210                                        00
TRX-D-000738ACT-D-006  00000154843320260224023771                                        00
TRX-D-000739ACT-D-002  00000049225120260224025062                                        00
TRX-D-000740ACT-D-005  00000150536320260224025504                                        00
TRX-D-000741ACT-D-002  00000402872920260224025588                                        00
TRX-D-000742ACT-D-006  00000040843520260224030735                                        00
TRX-D-000743ACT-D-002  00000093992820260224031993                                        00
TRX-D-000744ACT-D-004  00000074283720260224032347                                        00
TRX-D-000745ACT-D-006  00000167357620260224032620                                        00
TRX-D-000746ACT-D-005  00000120964520260224033278                                        00
TRX-D-000747ACT-D-005  00000048065320260224033960                                        00
TRX-D-000748ACT-D-002  00000272808920260224034448                                        00
TRX-D-000749ACT-D-006  00000089717720260224035596                                        00
TRX-D-000750ACT-D-004  00000136748520260224040496                                        00
TRX-D-000751ACT-D-005 T00000118440520260224040838                                        00
TRX-D-000752ACT-D-005  00000092795020260224041544                                        00
TRX-D-000753ACT-D-001  00000402389920260224041989                                        00
TRX-D-000754ACT-D-005  00000048406620260224042687                                        00
TRX-D-000755ACT-D-002  00000021429220260224044371                                        00
TRX-D-000756ACT-D-005  00000254594720260224045464                                        00
TRX-D-000757ACT-D-001  00000008438020260224050453                                        00
TRX-D-000758ACT-D-006  00000085056220260224050908                                        00
TRX-D-000759ACT-D-003 T00000295917720260224051110                                        00
TRX-D-000760ACT-D-003  00000401846320260224051192                                        00
TRX-D-000761ACT-D-002  00000114259620260224051653                                        00
TRX-D-000762ACT-D-006  00000018935520260224052013                                        00
TRX-D-000763ACT-D-006  00000211395020260224053174                                        00
TRX-D-000764ACT-D-006  00000376512320260224053383                                        00
TRX-D-000765ACT-D-004 T00000247851420260224053753                                        00
TRX-D-000766ACT-D-003  00000320730720260224053842                                        00
TRX-D-000767ACT-D-004  00000017720520260224054694                                        00
TRX-D-000768ACT-D-005  00000300139520260224060279                                        00
TRX-D-000769ACT-D-002  00000042536920260224060896                                        00
TRX-D-000770ACT-D-006  00000113641420260224061264                                        00
TRX-D-000771ACT-D-003  00000010506020260224062984                                        00
TRX-D-000772ACT-D-004  00000097969120260224063650                                        00
TRX-D-000773ACT-D-001  00000065710820260224064026                                        00
TRX-D-000774ACT-D-006  00000001181220260224064393                                        00
TRX-D-000775ACT-D-001 T00000328924720260224070058                                        00
TRX-D-000776ACT-D-006  00000004989020260224070850                                        00
TRX-D-000777ACT-D-005 T00000212279820260224070960                                        00
TRX-D-000778ACT-D-002 T00000380649720260224071539                                        00
TRX-D-000779ACT-D-001  00000086084920260224072596                                        00
TRX-D-000780ACT-D-003  00000096182320260224072828                                        00
TRX-D-000781ACT-D-001  00000078539520260224072940                                        00
TRX-D-000782ACT-D-006  00000188850720260224073559                                        00
TRX-D-000783ACT-D-005  00000106914720260224074271                                        00
TRX-D-000784ACT-D-003  00000417558320260224080006                                        00
TRX-D-000785ACT-D-003  00000092503620260224082174                                        00
TRX-D-000786ACT-D-001  00000006919420260224084041                                        00
TRX-D-000787ACT-D-002  00000007695120260224084505                                        00
TRX-D-000788ACT-D-004 T00000358727720260224091150                                        00
TRX-D-000789ACT-D-001  00000367423420260224091353                                        00
TRX-D-000790ACT-D-003  00000003479620260224091958                                        00
TRX-D-000791ACT-D-003  00000019284120260224092644                                        00
TRX-D-000792ACT-D-006  00000245448720260224093093                                        00
TRX-D-000793ACT-D-003  00000141918520260224094093                                        00
TRX-D-000794ACT-D-003  00000279044720260224094913                                        00
TRX-D-000795ACT-D-004  00000001314620260224095391                                        00
TRX-D-000796ACT-D-006  00000057484220260224095484                                        00
TRX-D-000797ACT-D-001  00000031596720260224100265                                        00
TRX-D-000798ACT-D-002  00000134072120260224101195                                        00
TRX-D-000799ACT-D-005  00000091227720260224101646                                        00
TRX-D-000800ACT-D-006  00000042997920260224102723                                        00
TRX-D-000801ACT-D-006  00000015443020260224103666                                        00
TRX-D-000802ACT-D-003  00000100967020260224104606                                        00
TRX-D-000803ACT-D-002  00000290647120260224104948                                        00
TRX-D-000804ACT-D-003  00000401165020260224105301                                        00
TRX-D-000805ACT-D-005  00000013474320260224105663                                        00
TRX-D-000806ACT-D-002  00000374084120260224105839                                        00
TRX-D-000807ACT-D-002  00000179832420260224110638                                        00
TRX-D-000808ACT-D-006  00000254236120260224112261                                        00
TRX-D-000809ACT-D-001  00000014717520260224112981                                        00
TRX-D-000810ACT-D-006  00000343070020260224113166                                        00
TRX-D-000811ACT-D-001  00000002644820260224114138                                        00
TRX-D-000812ACT-D-002  00000045119120260224114449                                        00
TRX-D-000813ACT-D-005 T00000385534920260224114477                                        00
TRX-D-000814ACT-D-002  00000150670320260224121308                                        00
TRX-D-000815ACT-D-002  00000009052220260224122168                                        00
TRX-D-000816ACT-D-006  00000209539420260224122305                                        00
TRX-D-000817ACT-D-004  00000355757120260224122583                                        00
TRX-D-000818ACT-D-004  00000012143220260224123311                                        00
TRX-D-000819ACT-D-004  00000224324220260224123406                                        00
TRX-D-000820ACT-D-006  00000017351320260224123811                                        00
TRX-D-000821ACT-D-004  00000343161920260224124373                                        00
TRX-D-000822ACT-D-005  00000180228520260224124658                                        00
TRX-D-000823ACT-D-003  00000151338720260224125357                                        00
TRX-D-000824ACT-D-005  00000262987920260224131511                                        00
TRX-D-000825ACT-D-006  00000142232020260224133939                                        00
TRX-D-000826ACT-D-001  00000023743220260224134196                                        00
TRX-D-000827ACT-D-006  00000019446320260224134552                                        00
TRX-D-000828ACT-D-001  00000201150120260224140863                                        00
TRX-D-000829ACT-D-002  00000446307220260224141539                                        00
TRX-D-000830ACT-D-003  00000125393520260224451819                                        00
TRX-D-000831ACT-D-004  00000095265620260224452236                                        00
TRX-D-000832ACT-D-002  00000304641720260224452729                                        00
TRX-D-000833ACT-D-001  00000144077220260224453457                                        00
TRX-D-000834ACT-D-002 T00000373408620260224453821                                        00
TRX-D-000835ACT-D-003  00000164763320260224455528                                        00
TRX-D-000836ACT-D-004  00000092040320260224455802                                        00
TRX-D-000837ACT-D-002  00000107224020260224461103                                        00
TRX-D-000838ACT-D-003  00000090931220260224462075                                        00
TRX-D-000839ACT-D-003  00000134063120260224463548                                        00
TRX-D-000840ACT-D-001  00000098160220260224464393                                        00
TRX-D-000841ACT-D-002  00000434560120260224464724                                        00
TRX-D-000842ACT-D-003  00000012792620260224470126                                        00
TRX-D-000843ACT-D-003  00000006566720260224471406                                        00
TRX-D-000844ACT-D-004  00000152774020260224473093                                        00
TRX-D-000845ACT-D-006  00000100648920260224473183                                        00
TRX-D-000846ACT-D-001  00000045422820260224474087                                        00
TRX-D-000847ACT-D-003  00000313472720260224474610                                        00
TRX-D-000848ACT-D-001  00000196012620260224474988                                        00
TRX-D-000849ACT-D-002  00000144078320260224475360                                        00
TRX-D-000850ACT-D-004 T00000138661120260224475423                                        00
TRX-D-000851ACT-D-006  00000009029320260224475788                                        00
TRX-D-000852ACT-D-006  00000025846620260224481457                                        00
TRX-D-000853ACT-D-006  00000132332720260224482573                                        00
TRX-D-000854ACT-D-004  00000159498620260224483189                                        00
TRX-D-000855ACT-D-002  00000368095820260224483986                                        00
TRX-D-000856ACT-D-003  00000327351320260224484998                                        00
TRX-D-000857ACT-D-004  00000011350820260224490106                                        00
TRX-D-000858ACT-D-006  00000145729820260224490204                                        00
TRX-D-000859ACT-D-005  00000005312820260224491048                                        00
TRX-D-000860ACT-D-006  00000015184220260224491968                                        00
TRX-D-000861ACT-D-004  00000080057820260224492495                                        00
TRX-D-000862ACT-D-004  00000165669220260224494943                                        00
TRX-D-000863ACT-D-003  00000134028720260224500612                                        00
TRX-D-000864ACT-D-006  00000145573120260224501698                                        00
TRX-D-000865ACT-D-004  00000013454220260224502056                                        00
TRX-D-000866ACT-D-005  00000128691020260224502496                                        00
TRX-D-000867ACT-D-005 T00000226769020260224502845                                        00
TRX-D-000868ACT-D-003  00000059649520260224503290                                        00
TRX-D-000869ACT-D-004  00000221067720260224503755                                        00
TRX-D-000870ACT-D-005  00000283847020260224505087                                        00
TRX-D-000871ACT-D-001  00000010834320260224510021                                        00
TRX-D-000872ACT-D-003  00000016893220260224514488                                        00
TRX-D-000873ACT-D-005  00000010224920260224520232                                        00
TRX-D-000874ACT-D-004  00000011719420260224520688                                        00
TRX-D-000875ACT-D-001  00000049261820260224521057                                        00
TRX-D-000876ACT-D-006  00000065533520260224521976                                        00
TRX-D-000877ACT-D-006  00000055959420260224523107                                        00
TRX-D-000878ACT-D-002  00000080244020260224524331                                        00
TRX-D-000879ACT-D-003  00000137247120260224524794                                        00
TRX-D-000880ACT-D-002  00000037143520260224530879                                        00
TRX-D-000881ACT-D-003  00000258508520260224531093                                        00
TRX-D-000882ACT-D-004  00000021153220260224531592                                        00
TRX-D-000883ACT-D-005  00000201535920260224531778                                        00
TRX-D-000884ACT-D-001  00000054527920260224533470                                        00
TRX-D-000885ACT-D-004  00000038859620260224533825                                        00
TRX-D-000886ACT-D-005  00000363414620260224533921                                        00
TRX-D-000887ACT-D-002 T00000317112220260224534959                                        00
TRX-D-000888ACT-D-006  00000326424320260224535129                                        00
TRX-D-000889ACT-D-005  00000305303320260224535237                                        00
TRX-D-000890ACT-D-002  00000436054120260224535338                                        00
TRX-D-000891ACT-D-005  00000161302520260224535448                                        00
TRX-D-000892ACT-D-006  00000190832520260224540195                                        00
TRX-D-000893ACT-D-005  00000180846320260224541081                                        00
TRX-D-000894ACT-D-001  00000175924020260224541444                                        00
TRX-D-000895ACT-D-006  00000273268120260224541816                                        00
TRX-D-000896ACT-D-004  00000021293320260224543708                                        00
TRX-D-000897ACT-D-004  00000436894720260224543801                                        00
TRX-D-000898ACT-D-005 T00000280317620260224543908                                        00
TRX-D-000899ACT-D-003  00000257459620260224545020                                        00
TRX-D-000900ACT-D-002  00000170586620260224545832                                        00
TRX-D-000901ACT-D-001  00000096337520260224552443                                        00
