TRX-D-000001ACT-D-001  00000035000020260217101530                                        00
TRX-D-000002ACT-D-002  00000007500020260217101530                                        00
TRX-D-000003ACT-D-004  00000500000020260217101530                                        00
TRX-D-000004ACT-D-003  00000000000020260217101530XFER-FROM-BANK_A-ACT-A-006              00
TRX-D-000005ACT-D-001  00000000000020260217101530XFER-FROM-BANK_E-ACT-E-007              00
TRX-D-000006ACT-D-005  00000000000020260217101530XFER-FROM-BANK_A-ACT-A-002              00
TRX-D-000007ACT-D-002  00000000000020260217101530XFER-FROM-BANK_A-ACT-A-008              00
TRX-D-000008ACT-D-003  00000000000020260217101530XFER-FROM-BANK_A-ACT-A-007              00
TRX-D-000009ACT-D-004  00000000000020260217101530XFER-TO-BANK_C-ACT-C-001                00
TRX-D-000010ACT-D-002  00000000000020260217101530XFER-FROM-BANK_B-ACT-B-007              00
TRX-D-000011ACT-D-005  00000000000020260217101530XFER-FROM-BANK_A-ACT-A-008              00
TRX-D-000012ACT-D-005  00000000000020260217101530XFER-FROM-BANK_E-ACT-E-006              00
TRX-D-000013ACT-D-001  00000000000020260217101530XFER-TO-BANK_A-ACT-A-004                00
TRX-D-000014ACT-D-005  00000000000020260217101530XFER-FROM-BANK_E-ACT-E-003              00
TRX-D-000015ACT-D-001  00000000000020260217101530XFER-TO-BANK_A-ACT-A-006                00
TRX-D-000016ACT-D-005  00000000000020260217101530XFER-TO-BANK_A-ACT-A-005                00
TRX-D-000017ACT-D-002  00000000000020260217101530XFER-FROM-BANK_E-ACT-E-006              00
TRX-D-000018ACT-D-005  00000000000020260217101530XFER-FROM-BANK_B-ACT-B-001              00
TRX-D-000019ACT-D-002  00000000000020260217101530XFER-FROM-BANK_A-ACT-A-008              00
TRX-D-000020ACT-D-003  00000000000020260217101530XFER-FROM-BANK_A-ACT-A-007              00
TRX-D-000021ACT-D-004  00000000000020260217101530XFER-TO-BANK_C-ACT-C-001                00
TRX-D-000022ACT-D-002  00000000000020260217101530XFER-FROM-BANK_A-ACT-A-005              00
TRX-D-000023ACT-D-004  00000000000020260217101530XFER-TO-BANK_E-ACT-E-008                00
TRX-D-000024ACT-D-004  00000000000020260217101530XFER-TO-BANK_A-ACT-A-003                00
TRX-D-000025ACT-D-006  00000000000020260217101530XFER-FROM-BANK_A-ACT-A-001              00
TRX-D-000026ACT-D-001  00000000000020260217101530XFER-FROM-BANK_C-ACT-C-002              00
TRX-D-000027ACT-D-003  00000000000020260217101530XFER-FROM-BANK_C-ACT-C-003              00
TRX-D-000028ACT-D-006  00000000000020260217101530XFER-FROM-BANK_C-ACT-C-002              00
TRX-D-000029ACT-D-004  00000000000020260217101530XFER-FROM-BANK_C-ACT-C-002              00
TRX-D-000030ACT-D-006  00000000000020260217101530XFER-FROM-BANK_A-ACT-A-002              00
TRX-D-000031ACT-D-006  00000000000020260217101530XFER-FROM-BANK_B-ACT-B-002              00
TRX-D-000032ACT-D-006  00000000000020260217101530XFER-TO-BANK_E-ACT-E-005                00
TRX-D-000033ACT-D-003  00000000000020260217101530XFER-FROM-BANK_C-ACT-C-004              00
TRX-D-000034ACT-D-002  00000000000020260217101530XFER-TO-BANK_B-ACT-B-002                00
TRX-D-000035ACT-D-005  00000000000020260217101530XFER-FROM-BANK_E-ACT-E-002              00
TRX-D-000036ACT-D-005  00000000000020260217101530XFER-FROM-BANK_A-ACT-A-002              00
TRX-D-000037ACT-D-006  00000000000020260217101530XFER-FROM-BANK_E-ACT-E-008              00
TRX-D-000038ACT-D-004  00000000000020260217101530XFER-FROM-BANK_B-ACT-B-007              00
TRX-D-000039ACT-D-003  00000000000020260217101530XFER-FROM-BANK_B-ACT-B-001              00
TRX-D-000040ACT-D-004  00000000000020260217101530XFER-TO-BANK_E-ACT-E-008                00
TRX-D-000041ACT-D-002  00000000000020260217101530XFER-TO-BANK_A-ACT-A-005                00
TRX-D-000042ACT-D-003  00000000000020260217101530XFER-FROM-BANK_B-ACT-B-003              00
TRX-D-000043ACT-D-001  00000000000020260217101530XFER-FROM-BANK_A-ACT-A-006              00
TRX-D-000044ACT-D-002  00000000000020260217101530XFER-FROM-BANK_B-ACT-B-005              00
TRX-D-000045ACT-D-003  00000000000020260217101530XFER-FROM-BANK_A-ACT-A-004              00
TRX-D-000046ACT-D-004  00000000000020260217101530XFER-FROM-BANK_A-ACT-A-005              00
TRX-D-000047ACT-D-005  00000000000020260217101530XFER-FROM-BANK_B-ACT-B-005              00
TRX-D-000048ACT-D-003  00000000000020260217101530XFER-TO-BANK_B-ACT-B-002                00
TRX-D-000049ACT-D-004  00000000000020260217101530XFER-FROM-BANK_B-ACT-B-006              00
TRX-D-000050ACT-D-001  00000000000020260217101530XFER-FROM-BANK_A-ACT-A-008              00
TRX-D-000051ACT-D-006  00000000000020260217101530XFER-TO-BANK_C-ACT-C-002                00
TRX-D-000052ACT-D-005  00000000000020260217101530XFER-FROM-BANK_E-ACT-E-008              00
TRX-D-000053ACT-D-003  00000000000020260217101530XFER-TO-BANK_A-ACT-A-006                00
TRX-D-000054ACT-D-006  00000000000020260217101530XFER-FROM-BANK_A-ACT-A-007              00
TRX-D-000055ACT-D-001  00000000000020260217101530XFER-FROM-BANK_B-ACT-B-004              00
TRX-D-000056ACT-D-001  00000000000020260217101530XFER-FROM-BANK_B-ACT-B-003              00
TRX-D-000057ACT-D-006  00000000000020260217101530XFER-FROM-BANK_C-ACT-C-005              00
TRX-D-000058ACT-D-005  00000000000020260217101530XFER-FROM-BANK_C-ACT-C-001              00
TRX-D-000059ACT-D-001  00000000000020260217101530XFER-FROM-BANK_A-ACT-A-008              00
TRX-D-000060ACT-D-002  00000000000020260217101530XFER-TO-BANK_A-ACT-A-005                00
TRX-D-000061ACT-D-004  00000000000020260217101530XFER-FROM-BANK_A-ACT-A-006              00
TRX-D-000062ACT-D-006  00000000000020260217101530XFER-FROM-BANK_B-ACT-B-002              00
TRX-D-000063ACT-D-006  00000000000020260217101530XFER-FROM-BANK_C-ACT-C-007              00
TRX-D-000064ACT-D-002  00000000000020260217101530XFER-FROM-BANK_A-ACT-A-003              00
TRX-D-000065ACT-D-005  00000000000020260217101530XFER-FROM-BANK_B-ACT-B-005              00
TRX-D-000066ACT-D-006  00000000000020260217101530XFER-FROM-BANK_B-ACT-B-005              00
TRX-D-000067ACT-D-004  00000000000020260217101530XFER-TO-BANK_C-ACT-C-007                00
TRX-D-000068ACT-D-006  00000000000020260217101530XFER-FROM-BANK_E-ACT-E-008              00
TRX-D-000069ACT-D-001  00000000000020260217101530XFER-FROM-BANK_C-ACT-C-008              00
TRX-D-000070ACT-D-001  00000000000020260217101530XFER-FROM-BANK_B-ACT-B-007              00
TRX-D-000071ACT-D-005  00000000000020260217101530XFER-FROM-BANK_B-ACT-B-006              00
TRX-D-000072ACT-D-006  00000000000020260217101530XFER-TO-BANK_C-ACT-C-007                00
TRX-D-000073ACT-D-003  00000000000020260217101530XFER-FROM-BANK_E-ACT-E-002              00
TRX-D-000074ACT-D-006  00000000000020260217101530XFER-FROM-BANK_C-ACT-C-002              00
TRX-D-000075ACT-D-006  00000000000020260217101530XFER-FROM-BANK_E-ACT-E-004              00
TRX-D-000076ACT-D-004  00000000000020260217101530XFER-FROM-BANK_C-ACT-C-001              00
TRX-D-000077ACT-D-006  00000000000020260217101530XFER-FROM-BANK_B-ACT-B-007              00
TRX-D-000078ACT-D-006  00000000000020260217101530XFER-FROM-BANK_E-ACT-E-002              00
TRX-D-000079ACT-D-004  00000000000020260217101530XFER-FROM-BANK_E-ACT-E-003              00
TRX-D-000080ACT-D-004  00000000000020260217101530XFER-FROM-BANK_B-ACT-B-001              00
TRX-D-000081ACT-D-003  00000000000020260217101530XFER-FROM-BANK_C-ACT-C-005              00
TRX-D-000082ACT-D-005  00000000000020260217101530XFER-FROM-BANK_C-ACT-C-003              00
TRX-D-000083ACT-D-002  00000000000020260217101530XFER-FROM-BANK_B-ACT-B-006              00
TRX-D-000084ACT-D-001  00000000000020260217101530XFER-TO-BANK_E-ACT-E-008                00
TRX-D-000085ACT-D-006  00000000000020260217101530XFER-FROM-BANK_E-ACT-E-006              00
TRX-D-000086ACT-D-006  00000000000020260217101530XFER-TO-BANK_C-ACT-C-003                00
TRX-D-000087ACT-D-005  00000000000020260217101530XFER-FROM-BANK_B-ACT-B-002              00
TRX-D-000088ACT-D-002  00000000000020260217101530XFER-FROM-BANK_A-ACT-A-006              00
TRX-D-000089ACT-D-001  00000000000020260217101530XFER-TO-BANK_B-ACT-B-007                00
TRX-D-000090ACT-D-003  00000000000020260217101530XFER-FROM-BANK_C-ACT-C-004              00
TRX-D-000091ACT-D-006  00000000000020260217101530XFER-TO-BANK_E-ACT-E-005                00
TRX-D-000092ACT-D-003  00000000000020260217101530XFER-FROM-BANK_B-ACT-B-001              00
TRX-D-000093ACT-D-003  00000000000020260217101530XFER-FROM-BANK_E-ACT-E-003              00
TRX-D-000094ACT-D-004  00000000000020260217101530XFER-FROM-BANK_E-ACT-E-006              00
TRX-D-000095ACT-D-002  00000000000020260217101530XFER-FROM-BANK_C-ACT-C-002              00
TRX-D-000096ACT-D-002  00000000000020260217101530XFER-FROM-BANK_B-ACT-B-002              00
TRX-D-000097ACT-D-004  00000000000020260217101530XFER-TO-BANK_B-ACT-B-005                00
TRX-D-000098ACT-D-004  00000000000020260217101530XFER-TO-BANK_B-ACT-B-003                00
TRX-D-000099ACT-D-001  00000000000020260217101530XFER-FROM-BANK_A-ACT-A-003              00
TRX-D-000100ACT-D-001  00000000000020260217101530XFER-TO-BANK_C-ACT-C-004                00
TRX-D-000101ACT-D-003  00000000000020260217101530XFER-TO-BANK_B-ACT-B-001                00
TRX-D-000102ACT-D-002  00000000000020260217101530XFER-FROM-BANK_E-ACT-E-006              00
TRX-D-000103ACT-D-003  00000000000020260217101530XFER-FROM-BANK_A-ACT-A-001              00
TRX-D-000104ACT-D-002  00000000000020260217101530XFER-TO-BANK_A-ACT-A-007                00
TRX-D-000105ACT-D-002  00000000000020260217101530XFER-TO-BANK_C-ACT-C-008                00
TRX-D-000106ACT-D-005  00000000000020260217101530XFER-FROM-BANK_B-ACT-B-004              00
TRX-D-000107ACT-D-003  00000000000020260217101530XFER-TO-BANK_A-ACT-A-002                00
TRX-D-000108ACT-D-001  00000000000020260217101530XFER-TO-BANK_E-ACT-E-008                00
TRX-D-000109ACT-D-004  00000000000020260217101530XFER-TO-BANK_A-ACT-A-001                00
TRX-D-000110ACT-D-003  00000000000020260217101530XFER-TO-BANK_C-ACT-C-007                00
TRX-D-000111ACT-D-006  00000000000020260217101530XFER-TO-BANK_E-ACT-E-003                00
TRX-D-000112ACT-D-004  00000000000020260217101530XFER-FROM-BANK_E-ACT-E-003              00
TRX-D-000113ACT-D-001  00000000000020260217101530XFER-FROM-BANK_A-ACT-A-006              00
TRX-D-000114ACT-D-002  00000000000020260217101530XFER-FROM-BANK_B-ACT-B-002              00
TRX-D-000115ACT-D-006  00000000000020260217101530XFER-TO-BANK_E-ACT-E-004                00
TRX-D-000116ACT-D-004  00000000000020260217101530XFER-FROM-BANK_C-ACT-C-008              00
TRX-D-000117ACT-D-004  00000000000020260217101530XFER-TO-BANK_C-ACT-C-003                00
TRX-D-000118ACT-D-002  00000000000020260217101530XFER-FROM-BANK_A-ACT-A-007              00
TRX-D-000119ACT-D-001  00000000000020260217101530XFER-TO-BANK_B-ACT-B-005                00
TRX-D-000120ACT-D-002  00000000000020260217101530XFER-FROM-BANK_A-ACT-A-002              00
TRX-D-000121ACT-D-002  00000000000020260217101530XFER-FROM-BANK_A-ACT-A-005              00
TRX-D-000122ACT-D-004  00000000000020260217101530XFER-FROM-BANK_E-ACT-E-006              00
TRX-D-000123ACT-D-003  00000000000020260217101530XFER-TO-BANK_E-ACT-E-007                00
TRX-D-000124ACT-D-005  00000000000020260217101530XFER-FROM-BANK_E-ACT-E-004              00
TRX-D-000125ACT-D-006  00000000000020260217101530XFER-TO-BANK_A-ACT-A-004                00
TRX-D-000126ACT-D-004  00000000000020260217101530XFER-TO-BANK_A-ACT-A-008                00
TRX-D-000127ACT-D-006  00000000000020260217101530XFER-TO-BANK_A-ACT-A-006                00
TRX-D-000128ACT-D-003  00000000000020260217101530XFER-FROM-BANK_B-ACT-B-001              00
TRX-D-000129ACT-D-001  00000000000020260217101530XFER-TO-BANK_B-ACT-B-003                00
TRX-D-000130ACT-D-003  00000000000020260217101530XFER-FROM-BANK_C-ACT-C-002              00
TRX-D-000131ACT-D-003  00000000000020260217101530XFER-FROM-BANK_C-ACT-C-003              00
TRX-D-000132ACT-D-004  00000000000020260217101530XFER-FROM-BANK_E-ACT-E-008              00
TRX-D-000133ACT-D-005  00000000000020260217101530XFER-FROM-BANK_C-ACT-C-006              00
TRX-D-000134ACT-D-001  00000000000020260217101530XFER-TO-BANK_E-ACT-E-004                00
TRX-D-000135ACT-D-006  00000000000020260217101530XFER-TO-BANK_B-ACT-B-003                00
TRX-D-000136ACT-D-006  00000000000020260217101530XFER-FROM-BANK_A-ACT-A-002              00
TRX-D-000137ACT-D-002  00000000000020260217101530XFER-TO-BANK_A-ACT-A-008                00
TRX-D-000138ACT-D-003  00000000000020260217101530XFER-FROM-BANK_B-ACT-B-001              00
TRX-D-000139ACT-D-001  00000000000020260217101530XFER-TO-BANK_A-ACT-A-001                00
TRX-D-000140ACT-D-005  00000000000020260217101530XFER-FROM-BANK_A-ACT-A-001              00
TRX-D-000141ACT-D-002  00000000000020260217101530XFER-FROM-BANK_B-ACT-B-005              00
TRX-D-000142ACT-D-001  00000000000020260217101530XFER-TO-BANK_E-ACT-E-004                00
TRX-D-000143ACT-D-005  00000000000020260217101530XFER-FROM-BANK_E-ACT-E-002              00
TRX-D-000144ACT-D-006  00000000000020260217101530XFER-FROM-BANK_B-ACT-B-007              00
TRX-D-000145ACT-D-005  00000000000020260217101530XFER-FROM-BANK_B-ACT-B-002              00
TRX-D-000146ACT-D-003  00000000000020260217101530XFER-TO-BANK_C-ACT-C-006                00
TRX-D-000147ACT-D-004  00000000000020260217101530XFER-TO-BANK_B-ACT-B-003                00
TRX-D-000148ACT-D-006  00000000000020260217101530XFER-FROM-BANK_A-ACT-A-001              00
TRX-D-000149ACT-D-003  00000000000020260217101530XFER-TO-BANK_E-ACT-E-003                00
TRX-D-000150ACT-D-006  00000000000020260217101530XFER-TO-BANK_E-ACT-E-006                00
TRX-D-000151ACT-D-002  00000000000020260217101530XFER-TO-BANK_C-ACT-C-007                00
TRX-D-000152ACT-D-006  00000000000020260217101530XFER-TO-BANK_C-ACT-C-007                00
TRX-D-000153ACT-D-006  00000000000020260217101530XFER-FROM-BANK_A-ACT-A-004              00
TRX-D-000154ACT-D-004  00000000000020260217101530XFER-TO-BANK_E-ACT-E-003                00
TRX-D-000155ACT-D-001  00000000000020260217101530XFER-FROM-BANK_A-ACT-A-002              00
TRX-D-000156ACT-D-004  00000000000020260217101530XFER-FROM-BANK_E-ACT-E-001              00
TRX-D-000157ACT-D-001  00000000000020260217101530XFER-FROM-BANK_E-ACT-E-005              00
TRX-D-000158ACT-D-002  00000000000020260217101530XFER-FROM-BANK_A-ACT-A-002              00
TRX-D-000159ACT-D-004  00000000000020260217101530XFER-TO-BANK_C-ACT-C-002                00
TRX-D-000160ACT-D-001  00000000000020260217101530XFER-FROM-BANK_A-ACT-A-005              00
TRX-D-000161ACT-D-004  00000000000020260217101530XFER-TO-BANK_A-ACT-A-007                00
TRX-D-000162ACT-D-001  00000000000020260217101530XFER-FROM-BANK_E-ACT-E-006              00
TRX-D-000163ACT-D-006  00000000000020260217101530XFER-TO-BANK_B-ACT-B-002                00
TRX-D-000164ACT-D-005  00000000000020260217101530XFER-TO-BANK_C-ACT-C-005                00
TRX-D-000165ACT-D-005  00000000000020260217101530XFER-TO-BANK_A-ACT-A-001                00
TRX-D-000166ACT-D-001  00000000000020260217101530XFER-FROM-BANK_C-ACT-C-007              00
TRX-D-000167ACT-D-001  00000000000020260217101530XFER-FROM-BANK_B-ACT-B-007              00
TRX-D-000168ACT-D-003  00000000000020260217101530XFER-FROM-BANK_B-ACT-B-004              00
TRX-D-000169ACT-D-002  00000000000020260217101530XFER-TO-BANK_E-ACT-E-002                00
TRX-D-000170ACT-D-001  00000000000020260217101530XFER-TO-BANK_A-ACT-A-007                00
TRX-D-000171ACT-D-005  00000000000020260217101530XFER-FROM-BANK_E-ACT-E-006              00
TRX-D-000172ACT-D-006  00000000000020260217101530XFER-FROM-BANK_A-ACT-A-004              00
TRX-D-000173ACT-D-006  00000000000020260217101530XFER-TO-BANK_B-ACT-B-007                00
TRX-D-000174ACT-D-004  00000000000020260217101530XFER-FROM-BANK_C-ACT-C-003              00
TRX-D-000175ACT-D-006  00000000000020260223525401XFER-TO-BANK_A-ACT-A-004                00
TRX-D-000176ACT-D-006  00000000000020260223531697XFER-FROM-BANK_B-ACT-B-001              00
TRX-D-000177ACT-D-004  00000000000020260223532027XFER-FROM-BANK_C-ACT-C-005              00
TRX-D-000178ACT-D-004  00000000000020260223540578XFER-FROM-BANK_B-ACT-B-003              00
TRX-D-000179ACT-D-003  00000000000020260223541221XFER-FROM-BANK_A-ACT-A-006              00
TRX-D-000180ACT-D-006  00000000000020260223541584XFER-FROM-BANK_C-ACT-C-001              00
TRX-D-000181ACT-D-005  00000000000020260223542143XFER-TO-BANK_B-ACT-B-004                00
TRX-D-000182ACT-D-001  00000000000020260223542898XFER-FROM-BANK_B-ACT-B-002              00
TRX-D-000183ACT-D-004  00000000000020260223544214XFER-FROM-BANK_A-ACT-A-006              00
TRX-D-000184ACT-D-005  00000000000020260223550551XFER-FROM-BANK_B-ACT-B-003              00
TRX-D-000185ACT-D-003  00000000000020260223551477XFER-TO-BANK_E-ACT-E-007                00
TRX-D-000186ACT-D-004  00000000000020260223551822XFER-TO-BANK_B-ACT-B-001                00
TRX-D-000187ACT-D-002  00000000000020260223553577XFER-FROM-BANK_A-ACT-A-002              00
TRX-D-000188ACT-D-004  00000000000020260223554559XFER-FROM-BANK_B-ACT-B-007              00
TRX-D-000189ACT-D-001  00000000000020260223554652XFER-TO-BANK_C-ACT-C-005                00
TRX-D-000190ACT-D-006  00000000000020260223560381XFER-FROM-BANK_B-ACT-B-004              00
TRX-D-000191ACT-D-005  00000000000020260223562925XFER-FROM-BANK_B-ACT-B-005              00
TRX-D-000192ACT-D-001  00000000000020260223563901XFER-FROM-BANK_C-ACT-C-008              00
TRX-D-000193ACT-D-004  00000000000020260223565156XFER-TO-BANK_C-ACT-C-004                00
TRX-D-000194ACT-D-006  00000000000020260223592204XFER-TO-BANK_A-ACT-A-004                00
TRX-D-000195ACT-D-006  00000000000020260223594402XFER-FROM-BANK_B-ACT-B-001              00
TRX-D-000196ACT-D-004  00000000000020260223594733XFER-FROM-BANK_C-ACT-C-005              00
TRX-D-000197ACT-D-002  00000000000020260223000822Foundation                              00
TRX-D-000198ACT-D-006  00000000000020260223001015Fiduciary                               00
TRX-D-000199ACT-D-004  00000000000020260223001642Audit                                   00
TRX-D-000200ACT-D-004  00000000000020260223001824Foundation                              00
TRX-D-000201ACT-D-004  00000000000020260223003366XFER-FROM-BANK_B-ACT-B-003              00
TRX-D-000202ACT-D-003  00000000000020260223004020XFER-FROM-BANK_A-ACT-A-006              00
TRX-D-000203ACT-D-006  00000000000020260223004379XFER-FROM-BANK_C-ACT-C-001              00
TRX-D-000204ACT-D-005  00000000000020260223004958XFER-TO-BANK_B-ACT-B-004                00
TRX-D-000205ACT-D-001  00000000000020260223005725XFER-FROM-BANK_B-ACT-B-002              00
TRX-D-000206ACT-D-004  00000000000020260223011076XFER-FROM-BANK_A-ACT-A-006              00
TRX-D-000207ACT-D-005  00000000000020260223013405XFER-FROM-BANK_B-ACT-B-003              00
TRX-D-000208ACT-D-003  00000000000020260223014299XFER-TO-BANK_E-ACT-E-007                00
TRX-D-000209ACT-D-004  00000000000020260223014655XFER-TO-BANK_B-ACT-B-001                00
TRX-D-000210ACT-D-001  00000000000020260223015555Trust                                   00
TRX-D-000211ACT-D-002  00000000000020260223020421XFER-FROM-BANK_A-ACT-A-002              00
TRX-D-000212ACT-D-004  00000000000020260223021386XFER-FROM-BANK_B-ACT-B-007              00
TRX-D-000213ACT-D-001  00000000000020260223021484XFER-TO-BANK_C-ACT-C-005                00
TRX-D-000214ACT-D-006  00000000000020260223021803Fiduciary                               00
TRX-D-000215ACT-D-006  00000000000020260223023189XFER-FROM-BANK_B-ACT-B-004              00
TRX-D-000216ACT-D-003  00000000000020260223023392Endowment                               00
TRX-D-000217ACT-D-005  00000000000020260223025797XFER-FROM-BANK_B-ACT-B-005              00
TRX-D-000218ACT-D-001  00000000000020260223030800XFER-FROM-BANK_C-ACT-C-008              00
TRX-D-000219ACT-D-004  00000000000020260223032135XFER-TO-BANK_C-ACT-C-004                00
TRX-D-000220ACT-D-006  00000000000020260223033579Foundation                              00
TRX-D-000221ACT-D-006  00000000000020260223034783XFER-TO-BANK_E-ACT-E-002                00
TRX-D-000222ACT-D-005  00000000000020260223035227Endowment                               00
TRX-D-000223ACT-D-003  00000000000020260223040000XFER-FROM-BANK_B-ACT-B-004              00
TRX-D-000224ACT-D-004  00000000000020260223040325XFER-FROM-BANK_B-ACT-B-004              00
TRX-D-000225ACT-D-005  00000000000020260223040551Trust                                   00
TRX-D-000226ACT-D-005  00000000000020260223040919XFER-FROM-BANK_E-ACT-E-004              00
TRX-D-000227ACT-D-004  00000000000020260223042685XFER-TO-BANK_E-ACT-E-002                00
TRX-D-000228ACT-D-001  00000000000020260223043579XFER-FROM-BANK_A-ACT-A-006              00
TRX-D-000229ACT-D-004  00000000000020260223044683XFER-FROM-BANK_A-ACT-A-002              00
TRX-D-000230ACT-D-004  00000000000020260223045905XFER-FROM-BANK_C-ACT-C-005              00
TRX-D-000231ACT-D-003  00000000000020260223050328XFER-FROM-BANK_E-ACT-E-007              00
TRX-D-000232ACT-D-006  00000000000020260223050908XFER-FROM-BANK_C-ACT-C-007              00
TRX-D-000233ACT-D-006  00000000000020260223051227XFER-FROM-BANK_C-ACT-C-003              00
TRX-D-000234ACT-D-005  00000000000020260223052484XFER-FROM-BANK_B-ACT-B-005              00
TRX-D-000235ACT-D-006  00000000000020260223053388XFER-TO-BANK_C-ACT-C-007                00
TRX-D-000236ACT-D-003  00000000000020260223054132Foundation                              00
TRX-D-000237ACT-D-006  00000000000020260223055680XFER-FROM-BANK_E-ACT-E-008              00
TRX-D-000238ACT-D-002 I00000199987520260223060225Monthly interest credit — ACT-D-002   00
TRX-D-000239ACT-D-004 I00000040833320260223060225Monthly interest credit — ACT-D-004   00
TRX-D-000240ACT-D-006 I00000250000020260223060225Monthly interest credit — ACT-D-006   00
TRX-D-000241ACT-D-002  00000000000020260223060793XFER-FROM-BANK_A-ACT-A-007              00
TRX-D-000242ACT-D-003  00000000000020260223060877Custodial                               00
TRX-D-000243ACT-D-001  00000000000020260223060961Audit                                   00
TRX-D-000244ACT-D-005  00000000000020260223062040XFER-FROM-BANK_A-ACT-A-008              00
TRX-D-000245ACT-D-004  00000000000020260223062127XFER-TO-BANK_B-ACT-B-007                00
TRX-D-000246ACT-D-002  00000000000020260223063900Regulatory                              00
TRX-D-000247ACT-D-001  00000000000020260223064466Custodial                               00
TRX-D-000248ACT-D-004  00000000000020260223070517XFER-FROM-BANK_A-ACT-A-008              00
TRX-D-000249ACT-D-003  00000000000020260223071213XFER-TO-BANK_A-ACT-A-003                00
TRX-D-000250ACT-D-006  00000000000020260223072370XFER-FROM-BANK_A-ACT-A-005              00
TRX-D-000251ACT-D-005  00000000000020260223073214Foundation                              00
TRX-D-000252ACT-D-002  00000000000020260223073889XFER-FROM-BANK_A-ACT-A-006              00
TRX-D-000253ACT-D-006  00000000000020260223075195XFER-FROM-BANK_A-ACT-A-004              00
TRX-D-000254ACT-D-001  00000000000020260223075793Foundation                              00
TRX-D-000255ACT-D-005  00000000000020260223080966XFER-TO-BANK_C-ACT-C-004                00
TRX-D-000256ACT-D-002  00000000000020260223081854XFER-FROM-BANK_E-ACT-E-006              00
TRX-D-000257ACT-D-006  00000000000020260223082896XFER-FROM-BANK_A-ACT-A-008              00
TRX-D-000258ACT-D-006  00000000000020260223083569XFER-FROM-BANK_C-ACT-C-004              00
TRX-D-000259ACT-D-006  00000118455520260223101658|STL-20260223-000002                    00
TRX-D-000260ACT-D-006  00000216587120260223103917|STL-20260223-000008                    00
TRX-D-000261ACT-D-004  00000054325420260223104239|STL-20260223-000009                    00
TRX-D-000262ACT-D-002  00000367005820260223110351grant                                   00
TRX-D-000263ACT-D-001 T00000129079220260223110450Collateral                              00
TRX-D-000264ACT-D-006  00000027042320260223110545fee                                     00
TRX-D-000265ACT-D-004  00000137317620260223111149expense                                 00
TRX-D-000266ACT-D-004  00000235574820260223111326grant                                   00
TRX-D-000267ACT-D-004  00000171205720260223112835|STL-20260223-000019                    00
TRX-D-000268ACT-D-003  00000017645820260223113493|STL-20260223-000021                    00
TRX-D-000269ACT-D-006  00000148148820260223113855|STL-20260223-000022                    00
TRX-D-000270ACT-D-005  00000391165120260223114172|STL-20260223-000024                    00
TRX-D-000271ACT-D-001  00000219117520260223114911|STL-20260223-000025                    00
TRX-D-000272ACT-D-004  00000013504420260223120222|STL-20260223-000028                    00
TRX-D-000273ACT-D-005  00000211567120260223122546|STL-20260223-000034                    00
TRX-D-000274ACT-D-003  00000427096720260223123427|STL-20260223-000037                    00
TRX-D-000275ACT-D-004  00000159174120260223123773|STL-20260223-000038                    00
TRX-D-000276ACT-D-002 T00000394216620260223124118Institutional                           00
TRX-D-000277ACT-D-001  00000291092120260223124644fund                                    00
TRX-D-000278ACT-D-002  00000003771920260223125521|STL-20260223-000041                    00
TRX-D-000279ACT-D-005 T00000388236320260223130131Collateral                              00
TRX-D-000280ACT-D-004  00000230708220260223130484|STL-20260223-000043                    00
TRX-D-000281ACT-D-001  00000148198120260223130573|STL-20260223-000044                    00
TRX-D-000282ACT-D-006  00000069268620260223130883fee                                     00
TRX-D-000283ACT-D-006  00000137421320260223132288|STL-20260223-000048                    00
TRX-D-000284ACT-D-003  00000219161420260223132500payout                                  00
TRX-D-000285ACT-D-005  00000236242320260223134798|STL-20260223-000054                    00
TRX-D-000286ACT-D-001  00000089872820260223135771|STL-20260223-000057                    00
TRX-D-000287ACT-D-004  00000242999820260223141012|STL-20260223-000060                    00
TRX-D-000288ACT-D-006  00000291892920260223142410grant                                   00
TRX-D-000289ACT-D-006  00000354147920260223143609|STL-20260223-000066                    00
TRX-D-000290ACT-D-005  00000273615520260223144047payout                                  00
TRX-D-000291ACT-D-003  00000047914120260223144823|STL-20260223-000068                    00
TRX-D-000292ACT-D-004  00000082509220260223145151|STL-20260223-000069                    00
TRX-D-000293ACT-D-005  00000409520220260223145381fund                                    00
TRX-D-000294ACT-D-005  00000045243820260223145753|STL-20260223-000070                    00
TRX-D-000295ACT-D-004  00000340639720260223151536|STL-20260223-000076                    00
TRX-D-000296ACT-D-001  00000019567920260223152463|STL-20260223-000078                    00
TRX-D-000297ACT-D-004  00000092651020260223153550|STL-20260223-000080                    00
TRX-D-000298ACT-D-004  00000091621820260223154761|STL-20260223-000083                    00
TRX-D-000299ACT-D-003  00000005659220260223155175|STL-20260223-000084                    00
TRX-D-000300ACT-D-006  00000064567320260223155770|STL-20260223-000085                    00
TRX-D-000301ACT-D-006  00000078574820260223160098|STL-20260223-000086                    00
TRX-D-000302ACT-D-005  00000087851920260223161313|STL-20260223-000089                    00
TRX-D-000303ACT-D-002 T00000161326920260223162101Liquidity                               00
TRX-D-000304ACT-D-006  00000053092020260223162258|STL-20260223-000092                    00
TRX-D-000305ACT-D-003  00000201562020260223163008grant                                   00
TRX-D-000306ACT-D-006  00000028623020260223164551|STL-20260223-000097                    00
TRX-D-000307ACT-D-002 I00000200938820260223165120Monthly interest credit — ACT-D-002   00
TRX-D-000308ACT-D-004 I00000041054720260223165120Monthly interest credit — ACT-D-004   00
TRX-D-000309ACT-D-006 I00000250989720260223165120Monthly interest credit — ACT-D-006   00
TRX-D-000310ACT-D-002  00000013293120260223165683|STL-20260223-000098                    00
TRX-D-000311ACT-D-003  00000125714020260223165766services                                00
TRX-D-000312ACT-D-001  00000067137720260223165853expense                                 00
TRX-D-000313ACT-D-005  00000005131820260223170926|STL-20260223-000101                    00
TRX-D-000314ACT-D-004  00000173787220260223171012|STL-20260223-000102                    00
TRX-D-000315ACT-D-002  00000118649420260223172857assessment                              00
TRX-D-000316ACT-D-004  00000010758220260223174097|STL-20260223-000109                    00
TRX-D-000317ACT-D-001 T00000207128220260223174196Institutional                           00
TRX-D-000318ACT-D-004  00000016087220260223175756|STL-20260223-000113                    00
TRX-D-000319ACT-D-006  00000353823220260223180736fund                                    00
TRX-D-000320ACT-D-006  00000004684120260223181652|STL-20260223-000117                    00
TRX-D-000321ACT-D-005  00000321683220260223182531grant                                   00
TRX-D-000322ACT-D-002  00000009274520260223183211|STL-20260223-000121                    00
TRX-D-000323ACT-D-006  00000006390820260223184505|STL-20260223-000124                    00
TRX-D-000324ACT-D-001  00000165181620260223185119grant                                   00
TRX-D-000325ACT-D-006  00000118455520260223415999                                        00
TRX-D-000326ACT-D-005  00000216587120260223422212                                        00
TRX-D-000327ACT-D-001  00000054325420260223422540                                        00
TRX-D-000328ACT-D-003  00000367005820260223424596                                        00
TRX-D-000329ACT-D-002 T00000129079220260223424688                                        00
TRX-D-000330ACT-D-006  00000027042320260223424783                                        00
TRX-D-000331ACT-D-001  00000137317620260223425368                                        00
TRX-D-000332ACT-D-002  00000235574820260223425556                                        00
TRX-D-000333ACT-D-002  00000171205720260223431018                                        00
TRX-D-000334ACT-D-005  00000017645820260223431632                                        00
TRX-D-000335ACT-D-005  00000148148820260223431995                                        00
TRX-D-000336ACT-D-003  00000391165120260223432567                                        00
TRX-D-000337ACT-D-001  00000219117520260223433301                                        00
TRX-D-000338ACT-D-001  00000013504420260223434605                                        00
TRX-D-000339ACT-D-003  00000211567120260223440922                                        00
TRX-D-000340ACT-D-005  00000427096720260223441794                                        00
TRX-D-000341ACT-D-002  00000159174120260223442127                                        00
TRX-D-000342ACT-D-003 T00000394216620260223442477                                        00
TRX-D-000343ACT-D-002  00000291092120260223443007                                        00
TRX-D-000344ACT-D-003  00000003771920260223443873                                        00
TRX-D-000345ACT-D-002 T00000388236320260223444477                                        00
TRX-D-000346ACT-D-002  00000230708220260223444837                                        00
TRX-D-000347ACT-D-002  00000148198120260223444924                                        00
TRX-D-000348ACT-D-005  00000069268620260223445234                                        00
TRX-D-000349ACT-D-006  00000137421320260223450619                                        00
TRX-D-000350ACT-D-005  00000219161420260223450818                                        00
TRX-D-000351ACT-D-003  00000236242320260223453163                                        00
TRX-D-000352ACT-D-002  00000089872820260223454153                                        00
TRX-D-000353ACT-D-002  00000242999820260223455400                                        00
TRX-D-000354ACT-D-006  00000291892920260223460800                                        00
TRX-D-000355ACT-D-006  00000354147920260223461981                                        00
TRX-D-000356ACT-D-003  00000273615520260223462427                                        00
TRX-D-000357ACT-D-006  00000047914120260223463222                                        00
TRX-D-000358ACT-D-002  00000082509220260223463568                                        00
TRX-D-000359ACT-D-004  00000409520220260223463798                                        00
TRX-D-000360ACT-D-004  00000045243820260223464183                                        00
TRX-D-000361ACT-D-001  00000340639720260223465959                                        00
TRX-D-000362ACT-D-001  00000019567920260223470880                                        00
TRX-D-000363ACT-D-006  00000014963520260223472022                                        00
TRX-D-000364ACT-D-004  00000138619920260223472120                                        00
TRX-D-000365ACT-D-006  00000005659220260223473703                                        00
TRX-D-000366ACT-D-006  00000064567320260223474284                                        00
TRX-D-000367ACT-D-005  00000078574820260223474615                                        00
TRX-D-000368ACT-D-004  00000087851920260223475866                                        00
TRX-D-000369ACT-D-002 T00000161326920260223480656                                        00
TRX-D-000370ACT-D-006  00000053092020260223480814                                        00
TRX-D-000371ACT-D-006  00000201562020260223481567                                        00
TRX-D-000372ACT-D-005  00000028623020260223483151                                        00
TRX-D-000373ACT-D-002 I00000202031220260223483721Monthly interest credit — ACT-D-002   00
TRX-D-000374ACT-D-004 I00000041551520260223483721Monthly interest credit — ACT-D-004   00
TRX-D-000375ACT-D-006 I00000252368220260223483721Monthly interest credit — ACT-D-006   00
TRX-D-000376ACT-D-003  00000013293120260223484292                                        00
TRX-D-000377ACT-D-006  00000125714020260223484373                                        00
TRX-D-000378ACT-D-001  00000067137720260223484451                                        00
TRX-D-000379ACT-D-004  00000005131820260223485505                                        00
TRX-D-000380ACT-D-002  00000173787220260223485607                                        00
TRX-D-000381ACT-D-003  00000118649420260223491430                                        00
TRX-D-000382ACT-D-001 T00000207128220260223492768                                        00
TRX-D-000383ACT-D-001  00000016087220260223494315                                        00
TRX-D-000384ACT-D-006  00000353823220260223495269                                        00
TRX-D-000385ACT-D-006  00000004684120260223500200                                        00
TRX-D-000386ACT-D-003  00000321683220260223501040                                        00
TRX-D-000387ACT-D-003  00000009274520260223501683                                        00
TRX-D-000388ACT-D-005  00000006390820260223502989                                        00
TRX-D-000389ACT-D-002  00000165181620260223503576                                        00
TRX-D-000390ACT-D-005 T00000304119620260223505090                                        00
TRX-D-000391ACT-D-001  00000210554820260223505515                                        00
TRX-D-000392ACT-D-004  00000010627020260223510097                                        00
TRX-D-000393ACT-D-005  00000247747820260223510478                                        00
TRX-D-000394ACT-D-003  00000104986820260223513503                                        00
TRX-D-000395ACT-D-006  00000010773320260223514127                                        00
TRX-D-000396ACT-D-004  00000366307120260223515627                                        00
TRX-D-000397ACT-D-006  00000120079320260223520673                                        00
TRX-D-000398ACT-D-002  00000093441820260223522479                                        00
TRX-D-000399ACT-D-006  00000194553320260223523120                                        00
TRX-D-000400ACT-D-001  00000068833920260223523264                                        00
TRX-D-000401ACT-D-001  00000337637620260223523455                                        00
TRX-D-000402ACT-D-001  00000051286620260223523961                                        00
TRX-D-000403ACT-D-006  00000359015320260223524553                                        00
TRX-D-000404ACT-D-006  00000013591220260223525537                                        00
TRX-D-000405ACT-D-006  00000328250520260223531297                                        00
TRX-D-000406ACT-D-002  00000413909320260223532486                                        00
TRX-D-000407ACT-D-004  00000148730320260223532984                                        00
TRX-D-000408ACT-D-001  00000360853520260223533187                                        00
TRX-D-000409ACT-D-003  00000215910520260223533512                                        00
TRX-D-000410ACT-D-004  00000169710820260223534059                                        00
TRX-D-000411ACT-D-006  00000118132020260223535118                                        00
TRX-D-000412ACT-D-003 T00000321896620260223535553                                        00
TRX-D-000413ACT-D-001  00000012140020260223540138                                        00
TRX-D-000414ACT-D-003 T00000371562320260223540242                                        00
TRX-D-000415ACT-D-005  00000295269420260223540683                                        00
TRX-D-000416ACT-D-004  00000207648520260223541207                                        00
TRX-D-000417ACT-D-001  00000013343920260223542413                                        00
TRX-D-000418ACT-D-006  00000144450520260223544271                                        00
TRX-D-000419ACT-D-002 T00000288928120260223545115                                        00
TRX-D-000420ACT-D-002  00000128829720260223545637                                        00
TRX-D-000421ACT-D-005  00000028704520260223551745                                        00
TRX-D-000422ACT-D-002  00000030875920260223552880                                        00
TRX-D-000423ACT-D-001  00000209086320260223552964                                        00
TRX-D-000424ACT-D-001  00000024407320260223555215                                        00
TRX-D-000425ACT-D-003  00000006335520260223555551                                        00
TRX-D-000426ACT-D-004  00000292770720260223560314                                        00
TRX-D-000427ACT-D-002  00000095097520260223560678                                        00
TRX-D-000428ACT-D-001  00000031800020260223562098                                        00
TRX-D-000429ACT-D-001 T00000173343920260223562391                                        00
TRX-D-000430ACT-D-005  00000013164920260223564054                                        00
TRX-D-000431ACT-D-001  00000422959020260223564958                                        00
TRX-D-000432ACT-D-005  00000050584820260223565288                                        00
TRX-D-000433ACT-D-003  00000034736420260223574139                                        00
TRX-D-000434ACT-D-003  00000038770720260223574487                                        00
TRX-D-000435ACT-D-006  00000017763720260223575158                                        00
TRX-D-000436ACT-D-003 T00000364531220260223575572                                        00
TRX-D-000437ACT-D-002  00000163385120260223581521                                        00
TRX-D-000438ACT-D-002  00000003447020260223581879                                        00
TRX-D-000439ACT-D-003  00000018104220260223582549                                        00
TRX-D-000440ACT-D-003  00000441649520260223582626                                        00
TRX-D-000441ACT-D-005  00000280618020260223582709                                        00
TRX-D-000442ACT-D-005  00000155654720260223583584                                        00
TRX-D-000443ACT-D-002 T00000391749020260223584341                                        00
TRX-D-000444ACT-D-005 T00000318639820260223584424                                        00
TRX-D-000445ACT-D-004  00000023868220260223590538                                        00
TRX-D-000446ACT-D-005  00000216758020260223590978                                        00
TRX-D-000447ACT-D-005  00000448987620260223591163                                        00
TRX-D-000448ACT-D-005  00000367556020260223591943                                        00
TRX-D-000449ACT-D-004  00000199465120260223593933                                        00
TRX-D-000450ACT-D-005  00000046750520260223594518                                        00
TRX-D-000451ACT-D-005  00000090516220260223000153                                        00
TRX-D-000452ACT-D-001  00000037816320260223001079                                        00
TRX-D-000453ACT-D-005  00000106186620260223001730                                        00
TRX-D-000454ACT-D-003  00000309538620260223001825                                        00
TRX-D-000455ACT-D-002  00000387739920260223002193                                        00
TRX-D-000456ACT-D-004  00000019607820260223002771                                        00
TRX-D-000457ACT-D-005  00000098674620260223003446                                        00
TRX-D-000458ACT-D-005  00000093547820260223010187                                        00
TRX-D-000459ACT-D-006  00000363722920260223010613                                        00
TRX-D-000460ACT-D-005  00000022912520260223011191                                        00
TRX-D-000461ACT-D-006  00000414594620260223011306                                        00
TRX-D-000462ACT-D-001 T00000146111020260223012279                                        00
TRX-D-000463ACT-D-006  00000279070820260223012363                                        00
TRX-D-000464ACT-D-005  00000241702620260223021324                                        00
TRX-D-000465ACT-D-004  00000050473520260223021648                                        00
TRX-D-000466ACT-D-002  00000024474320260223021979                                        00
TRX-D-000467ACT-D-004  00000120308120260223022073                                        00
TRX-D-000468ACT-D-003  00000013422220260223023617                                        00
TRX-D-000469ACT-D-003  00000001334820260223024281                                        00
TRX-D-000470ACT-D-006 T00000197221320260223024361                                        00
TRX-D-000471ACT-D-004  00000241608520260223025557                                        00
TRX-D-000472ACT-D-003  00000254322020260223030492                                        00
TRX-D-000473ACT-D-002  00000030670020260223031420                                        00
TRX-D-000474ACT-D-004  00000107826620260223032548                                        00
TRX-D-000475ACT-D-004  00000066416420260223033234                                        00
TRX-D-000476ACT-D-006  00000117258220260223033919                                        00
TRX-D-000477ACT-D-001  00000435828120260223034337                                        00
TRX-D-000478ACT-D-003  00000153393420260223035237                                        00
TRX-D-000479ACT-D-004  00000015787220260223035574                                        00
TRX-D-000480ACT-D-004  00000123249720260223040566                                        00
TRX-D-000481ACT-D-005  00000038116220260223041309                                        00
TRX-D-000482ACT-D-005  00000004310220260223041712                                        00
TRX-D-000483ACT-D-005  00000012333620260223042028                                        00
TRX-D-000484ACT-D-006  00000029883720260223042116                                        00
TRX-D-000485ACT-D-002  00000189077520260223042432                                        00
TRX-D-000486ACT-D-003  00000234080020260223043285                                        00
TRX-D-000487ACT-D-003 T00000238021220260223043536                                        00
TRX-D-000488ACT-D-001  00000111092620260223043889                                        00
TRX-D-000489ACT-D-002 T00000249879320260223044250                                        00
TRX-D-000490ACT-D-003  00000407550620260223044337                                        00
TRX-D-000491ACT-D-003  00000168010920260223044419                                        00
TRX-D-000492ACT-D-003 T00000323378020260223044512                                        00
TRX-D-000493ACT-D-005 T00000185957120260223044874                                        00
