SIM-E-001001ACT-E-002 D00000040980020260224575504Simulated deposit                       00
SIM-E-001002ACT-E-004 T00000027700020260224575504Simulated internal transfer             00
SIM-E-001003ACT-E-006 W00000008240020260224575504Simulated withdrawal                    00
SIM-E-001004ACT-E-008 D00000019240020260224575504Simulated deposit                       00
SIM-E-002001ACT-E-001 T00000024940020260224575992Outbound interbank transfer             00
SIM-E-002002ACT-E-002 T00000027170020260224575992Simulated internal transfer             00
SIM-E-002003ACT-E-003 W00000008150020260224575992Simulated withdrawal                    00
SIM-E-002004ACT-E-005 D00000028120020260224575992Simulated deposit                       00
SIM-E-002005ACT-E-007 D00000027040020260224575992Simulated deposit                       00
SIM-E-003001ACT-E-001 W00000014030020260224580479Simulated withdrawal                    00
SIM-E-003002ACT-E-003 D00000011710020260224580479Simulated deposit                       00
SIM-E-003003ACT-E-005 T00000037490020260224580479Outbound interbank transfer             00
SIM-E-003004ACT-E-007 T00000022650020260224580479Simulated internal transfer             00
SIM-E-004001ACT-E-001 D00000044800020260224580968Simulated deposit                       00
SIM-E-004002ACT-E-003 T00000009260020260224580968Simulated internal transfer             00
SIM-E-004003ACT-E-004 T00000015690020260224580968Simulated internal transfer             00
SIM-E-004004ACT-E-005 W00000017730020260224580968Simulated withdrawal                    00
SIM-E-004005ACT-E-006 W00000003950020260224580968Simulated withdrawal                    00
SIM-E-004006ACT-E-008 D00000047270020260224580968Simulated deposit                       00
SIM-E-005001ACT-E-002 W00000017640020260224581464Simulated withdrawal                    00
SIM-E-005002ACT-E-004 D00000031940020260224581464Simulated deposit                       00
SIM-E-005003ACT-E-006 D00000030860020260224581464Simulated deposit                       00
SIM-E-005004ACT-E-008 T00000004740020260224581464Simulated internal transfer             00
SIM-E-006001ACT-E-002 D00000015530020260224581870Simulated deposit                       00
SIM-E-006002ACT-E-004 D00000014450020260224581870Simulated deposit                       00
SIM-E-006003ACT-E-006 T00000004210020260224581870Simulated internal transfer             00
SIM-E-006004ACT-E-007 W00000007560020260224581870Simulated withdrawal                    00
SIM-E-006005ACT-E-008 W00000013530020260224581870Simulated withdrawal                    00
SIM-E-007001ACT-E-001 D00000023330020260224582377Simulated deposit                       00
SIM-E-007002ACT-E-003 T00000026250020260224582377Simulated internal transfer             00
SIM-E-007003ACT-E-005 W00000013440020260224582377Simulated withdrawal                    00
SIM-E-007004ACT-E-007 D00000001590020260224582377Simulated deposit                       00
SIM-E-008001ACT-E-001 W00000007380020260224582879Simulated withdrawal                    00
SIM-E-008002ACT-E-003 D00000035760020260224582879Simulated deposit                       00
SIM-E-008003ACT-E-005 D00000034680020260224582879Simulated deposit                       00
SIM-E-008004ACT-E-007 T00000015300020260224582879Simulated internal transfer             00
SIM-E-009001ACT-E-001 D00000019350020260224583410Simulated deposit                       00
SIM-E-009002ACT-E-002 D00000043560020260224583410Simulated deposit                       00
SIM-E-009003ACT-E-003 D00000018270020260224583410Simulated deposit                       00
SIM-E-009004ACT-E-004 T00000008340020260224583410Simulated internal transfer             00
SIM-E-009005ACT-E-006 W00000017050020260224583410Simulated withdrawal                    00
SIM-E-009006ACT-E-008 D00000021820020260224583410Simulated deposit                       00
SIM-E-010001ACT-E-002 T00000007810020260224583939Simulated internal transfer             00
SIM-E-010002ACT-E-004 W00000003180020260224583939Simulated withdrawal                    00
SIM-E-010003ACT-E-006 D00000005410020260224583939Simulated deposit                       00
SIM-E-010004ACT-E-008 T00000014090020260224583939Outbound interbank transfer             00
SIM-E-011001ACT-E-002 W00000009060020260224584471Simulated withdrawal                    00
SIM-E-011002ACT-E-004 D00000038500020260224584471Simulated deposit                       00
SIM-E-011003ACT-E-005 D00000013210020260224584471Simulated deposit                       00
SIM-E-011004ACT-E-006 T00000025860020260224584471Simulated internal transfer             00
SIM-E-011005ACT-E-007 T00000003290020260224584471Simulated internal transfer             00
SIM-E-012001ACT-E-001 D00000047380020260224584909Simulated deposit                       00
SIM-E-012002ACT-E-003 T00000023900020260224584909Outbound interbank transfer             00
SIM-E-012003ACT-E-005 W00000006790020260224584909Simulated withdrawal                    00
SIM-E-012004ACT-E-007 D00000025640020260224584909Simulated deposit                       00
SIM-E-013001ACT-E-001 T00000018370020260224585435Simulated internal transfer             00
SIM-E-013002ACT-E-003 W00000012670020260224585435Simulated withdrawal                    00
SIM-E-013003ACT-E-005 D00000009230020260224585435Simulated deposit                       00
SIM-E-013004ACT-E-007 T00000036450020260224585435Outbound interbank transfer             00
SIM-E-013005ACT-E-008 T00000014380020260224585435Simulated internal transfer             00
SIM-E-014001ACT-E-001 W00000018550020260224585965Simulated withdrawal                    00
SIM-E-014002ACT-E-002 D00000018110020260224585965Simulated deposit                       00
SIM-E-014003ACT-E-003 D00000042320020260224585965Simulated deposit                       00
SIM-E-014004ACT-E-004 D00000017030020260224585965Simulated deposit                       00
SIM-E-014005ACT-E-006 T00000013850020260224585965Simulated internal transfer             00
SIM-E-014006ACT-E-008 W00000002590020260224585965Simulated withdrawal                    00
SIM-E-015001ACT-E-002 T00000046260020260224590492Outbound interbank transfer             00
SIM-E-015002ACT-E-004 W00000016280020260224590492Simulated withdrawal                    00
SIM-E-015003ACT-E-006 D00000029460020260224590492Simulated deposit                       00
SIM-E-015004ACT-E-008 D00000028380020260224590492Simulated deposit                       00
SIM-E-016001ACT-E-002 W00000002410020260224591029Simulated withdrawal                    00
SIM-E-016002ACT-E-003 W00000008380020260224591029Simulated withdrawal                    00
SIM-E-016003ACT-E-004 D00000013050020260224591029Simulated deposit                       00
SIM-E-016004ACT-E-005 D00000037260020260224591029Simulated deposit                       00
SIM-E-016005ACT-E-006 D00000011970020260224591029Simulated deposit                       00
SIM-E-016006ACT-E-007 T00000024940020260224591029Simulated internal transfer             00
SIM-E-017001ACT-E-001 D00000021930020260224591566Simulated deposit                       00
SIM-E-017002ACT-E-003 D00000020850020260224591566Simulated deposit                       00
SIM-E-017003ACT-E-005 T00000024410020260224591566Simulated internal transfer             00
SIM-E-017004ACT-E-007 W00000012080020260224591566Simulated withdrawal                    00
SIM-E-018001ACT-E-001 T00000020620020260224592013Outbound interbank transfer             00
SIM-E-018002ACT-E-003 W00000006020020260224592013Simulated withdrawal                    00
SIM-E-018003ACT-E-005 D00000033280020260224592013Simulated deposit                       00
SIM-E-018004ACT-E-006 D00000007990020260224592013Simulated deposit                       00
SIM-E-018005ACT-E-007 D00000032200020260224592013Simulated deposit                       00
SIM-E-018006ACT-E-008 T00000035930020260224592013Outbound interbank transfer             00
SIM-E-019001ACT-E-001 W00000011900020260224592572Simulated withdrawal                    00
SIM-E-019002ACT-E-002 W00000017870020260224592572Simulated withdrawal                    00
SIM-E-019003ACT-E-004 D00000041080020260224592572Simulated deposit                       00
SIM-E-019004ACT-E-006 T00000006500020260224592572Simulated internal transfer             00
SIM-E-019005ACT-E-008 W00000015690020260224592572Simulated withdrawal                    00
SIM-E-020001ACT-E-002 D00000024670020260224593088Simulated deposit                       00
SIM-E-020002ACT-E-004 T00000005970020260224593088Simulated internal transfer             00
SIM-E-020003ACT-E-006 W00000001820020260224593088Simulated withdrawal                    00
SIM-E-020004ACT-E-008 D00000002930020260224593088Simulated deposit                       00
SIM-E-021001ACT-E-002 W00000015510020260224593618Simulated withdrawal                    00
SIM-E-021002ACT-E-003 W00000001730020260224593618Simulated withdrawal                    00
SIM-E-021003ACT-E-004 W00000007700020260224593618Simulated withdrawal                    00
SIM-E-021004ACT-E-005 D00000011810020260224593618Simulated deposit                       00
SIM-E-021005ACT-E-007 D00000010730020260224593618Simulated deposit                       00
SIM-E-022001ACT-E-001 W00000007610020260224594152Simulated withdrawal                    00
SIM-E-022002ACT-E-003 D00000044900020260224594152Simulated deposit                       00
SIM-E-022003ACT-E-005 T00000022860020260224594152Outbound interbank transfer             00
SIM-E-022004ACT-E-007 W00000005430020260224594152Simulated withdrawal                    00
SIM-E-023001ACT-E-001 D00000028490020260224594598Simulated deposit                       00
SIM-E-023002ACT-E-003 T00000016530020260224594598Simulated internal transfer             00
SIM-E-023003ACT-E-005 W00000011310020260224594598Simulated withdrawal                    00
SIM-E-023004ACT-E-006 D00000032040020260224594598Simulated deposit                       00
SIM-E-023005ACT-E-007 D00000006750020260224594598Simulated deposit                       00
SIM-E-023006ACT-E-008 D00000030960020260224594598Simulated deposit                       00
SIM-E-024001ACT-E-002 W00000011220020260224595144Simulated withdrawal                    00
SIM-E-024002ACT-E-004 D00000015630020260224595144Simulated deposit                       00
SIM-E-024003ACT-E-006 D00000014550020260224595144Simulated deposit                       00
SIM-E-024004ACT-E-008 T00000012010020260224595144Simulated internal transfer             00
SIM-E-025001ACT-E-002 D00000048720020260224595685Simulated deposit                       00
SIM-E-025002ACT-E-004 T00000045220020260224595685Outbound interbank transfer             00
SIM-E-025003ACT-E-006 W00000014920020260224595685Simulated withdrawal                    00
SIM-E-025004ACT-E-008 D00000026980020260224595685Simulated deposit                       00
