SIM-E-001001ACT-E-002 D00000040980020260224554018Simulated deposit                       00
SIM-E-001002ACT-E-004 T00000027700020260224554018Simulated internal transfer             00
SIM-E-001003ACT-E-006 W00000008240020260224554018Simulated withdrawal                    00
SIM-E-001004ACT-E-008 D00000019240020260224554018Simulated deposit                       00
SIM-E-002001ACT-E-001 T00000024940020260224554526Outbound interbank transfer             00
SIM-E-002002ACT-E-002 T00000027170020260224554526Simulated internal transfer             00
SIM-E-002003ACT-E-003 W00000008150020260224554526Simulated withdrawal                    00
SIM-E-002004ACT-E-005 D00000028120020260224554526Simulated deposit                       00
SIM-E-002005ACT-E-007 D00000027040020260224554526Simulated deposit                       00
SIM-E-003001ACT-E-001 W00000014030020260224555027Simulated withdrawal                    00
SIM-E-003002ACT-E-003 D00000011710020260224555027Simulated deposit                       00
SIM-E-003003ACT-E-005 T00000037490020260224555027Outbound interbank transfer             00
SIM-E-003004ACT-E-007 T00000022650020260224555027Simulated internal transfer             00
SIM-E-004001ACT-E-001 D00000044800020260224555533Simulated deposit                       00
SIM-E-004002ACT-E-003 T00000009260020260224555533Simulated internal transfer             00
SIM-E-004003ACT-E-004 T00000015690020260224555533Simulated internal transfer             00
SIM-E-004004ACT-E-005 W00000017730020260224555533Simulated withdrawal                    00
SIM-E-004005ACT-E-006 W00000003950020260224555533Simulated withdrawal                    00
SIM-E-004006ACT-E-008 D00000047270020260224555533Simulated deposit                       00
SIM-E-005001ACT-E-002 W00000017640020260224560041Simulated withdrawal                    00
SIM-E-005002ACT-E-004 D00000031940020260224560041Simulated deposit                       00
SIM-E-005003ACT-E-006 D00000030860020260224560041Simulated deposit                       00
SIM-E-005004ACT-E-008 T00000004740020260224560041Simulated internal transfer             00
SIM-E-006001ACT-E-002 D00000015530020260224560541Simulated deposit                       00
SIM-E-006002ACT-E-004 D00000014450020260224560541Simulated deposit                       00
SIM-E-006003ACT-E-006 T00000004210020260224560541Simulated internal transfer             00
SIM-E-006004ACT-E-007 W00000007560020260224560541Simulated withdrawal                    00
SIM-E-006005ACT-E-008 W00000013530020260224560541Simulated withdrawal                    00
SIM-E-007001ACT-E-001 D00000023330020260224560924Simulated deposit                       00
SIM-E-007002ACT-E-003 T00000026250020260224560924Simulated internal transfer             00
SIM-E-007003ACT-E-005 W00000013440020260224560924Simulated withdrawal                    00
SIM-E-007004ACT-E-007 D00000001590020260224560924Simulated deposit                       00
SIM-E-008001ACT-E-001 W00000007380020260224561432Simulated withdrawal                    00
SIM-E-008002ACT-E-003 D00000035760020260224561432Simulated deposit                       00
SIM-E-008003ACT-E-005 D00000034680020260224561432Simulated deposit                       00
SIM-E-008004ACT-E-007 T00000015300020260224561432Simulated internal transfer             00
SIM-E-009001ACT-E-001 D00000019350020260224561932Simulated deposit                       00
SIM-E-009002ACT-E-002 D00000043560020260224561932Simulated deposit                       00
SIM-E-009003ACT-E-003 D00000018270020260224561932Simulated deposit                       00
SIM-E-009004ACT-E-004 T00000008340020260224561932Simulated internal transfer             00
SIM-E-009005ACT-E-006 W00000017050020260224561932Simulated withdrawal                    00
SIM-E-009006ACT-E-008 D00000021820020260224561932Simulated deposit                       00
SIM-E-010001ACT-E-002 T00000007810020260224562447Simulated internal transfer             00
SIM-E-010002ACT-E-004 W00000003180020260224562447Simulated withdrawal                    00
SIM-E-010003ACT-E-006 D00000005410020260224562447Simulated deposit                       00
SIM-E-010004ACT-E-008 T00000014090020260224562447Outbound interbank transfer             00
SIM-E-011001ACT-E-002 W00000009060020260224562970Simulated withdrawal                    00
SIM-E-011002ACT-E-004 D00000038500020260224562970Simulated deposit                       00
SIM-E-011003ACT-E-005 D00000013210020260224562970Simulated deposit                       00
SIM-E-011004ACT-E-006 T00000025860020260224562970Simulated internal transfer             00
SIM-E-011005ACT-E-007 T00000003290020260224562970Simulated internal transfer             00
SIM-E-012001ACT-E-001 D00000047380020260224563469Simulated deposit                       00
SIM-E-012002ACT-E-003 T00000023900020260224563469Outbound interbank transfer             00
SIM-E-012003ACT-E-005 W00000006790020260224563469Simulated withdrawal                    00
SIM-E-012004ACT-E-007 D00000025640020260224563469Simulated deposit                       00
SIM-E-013001ACT-E-001 T00000018370020260224563862Simulated internal transfer             00
SIM-E-013002ACT-E-003 W00000012670020260224563862Simulated withdrawal                    00
SIM-E-013003ACT-E-005 D00000009230020260224563862Simulated deposit                       00
SIM-E-013004ACT-E-007 T00000036450020260224563862Outbound interbank transfer             00
SIM-E-013005ACT-E-008 T00000014380020260224563862Simulated internal transfer             00
SIM-E-014001ACT-E-001 W00000018550020260224564368Simulated withdrawal                    00
SIM-E-014002ACT-E-002 D00000018110020260224564368Simulated deposit                       00
SIM-E-014003ACT-E-003 D00000042320020260224564368Simulated deposit                       00
SIM-E-014004ACT-E-004 D00000017030020260224564368Simulated deposit                       00
SIM-E-014005ACT-E-006 T00000013850020260224564368Simulated internal transfer             00
SIM-E-014006ACT-E-008 W00000002590020260224564368Simulated withdrawal                    00
SIM-E-015001ACT-E-002 T00000046260020260224564862Outbound interbank transfer             00
SIM-E-015002ACT-E-004 W00000016280020260224564862Simulated withdrawal                    00
SIM-E-015003ACT-E-006 D00000029460020260224564862Simulated deposit                       00
SIM-E-015004ACT-E-008 D00000028380020260224564862Simulated deposit                       00
SIM-E-016001ACT-E-002 W00000002410020260224565376Simulated withdrawal                    00
SIM-E-016002ACT-E-003 W00000008380020260224565376Simulated withdrawal                    00
SIM-E-016003ACT-E-004 D00000013050020260224565376Simulated deposit                       00
SIM-E-016004ACT-E-005 D00000037260020260224565376Simulated deposit                       00
SIM-E-016005ACT-E-006 D00000011970020260224565376Simulated deposit                       00
SIM-E-016006ACT-E-007 T00000024940020260224565376Simulated internal transfer             00
SIM-E-017001ACT-E-001 D00000021930020260224565880Simulated deposit                       00
SIM-E-017002ACT-E-003 D00000020850020260224565880Simulated deposit                       00
SIM-E-017003ACT-E-005 T00000024410020260224565880Simulated internal transfer             00
SIM-E-017004ACT-E-007 W00000012080020260224565880Simulated withdrawal                    00
SIM-E-018001ACT-E-001 T00000020620020260224570402Outbound interbank transfer             00
SIM-E-018002ACT-E-003 W00000006020020260224570402Simulated withdrawal                    00
SIM-E-018003ACT-E-005 D00000033280020260224570402Simulated deposit                       00
SIM-E-018004ACT-E-006 D00000007990020260224570402Simulated deposit                       00
SIM-E-018005ACT-E-007 D00000032200020260224570402Simulated deposit                       00
SIM-E-018006ACT-E-008 T00000035930020260224570402Outbound interbank transfer             00
SIM-E-019001ACT-E-001 W00000011900020260224570785Simulated withdrawal                    00
SIM-E-019002ACT-E-002 W00000017870020260224570785Simulated withdrawal                    00
SIM-E-019003ACT-E-004 D00000041080020260224570785Simulated deposit                       00
SIM-E-019004ACT-E-006 T00000006500020260224570785Simulated internal transfer             00
SIM-E-019005ACT-E-008 W00000015690020260224570785Simulated withdrawal                    00
SIM-E-020001ACT-E-002 D00000024670020260224571301Simulated deposit                       00
SIM-E-020002ACT-E-004 T00000005970020260224571301Simulated internal transfer             00
SIM-E-020003ACT-E-006 W00000001820020260224571301Simulated withdrawal                    00
SIM-E-020004ACT-E-008 D00000002930020260224571301Simulated deposit                       00
SIM-E-021001ACT-E-002 W00000015510020260224571816Simulated withdrawal                    00
SIM-E-021002ACT-E-003 W00000001730020260224571816Simulated withdrawal                    00
SIM-E-021003ACT-E-004 W00000007700020260224571816Simulated withdrawal                    00
SIM-E-021004ACT-E-005 D00000011810020260224571816Simulated deposit                       00
SIM-E-021005ACT-E-007 D00000010730020260224571816Simulated deposit                       00
SIM-E-022001ACT-E-001 W00000007610020260224572331Simulated withdrawal                    00
SIM-E-022002ACT-E-003 D00000044900020260224572331Simulated deposit                       00
SIM-E-022003ACT-E-005 T00000022860020260224572331Outbound interbank transfer             00
SIM-E-022004ACT-E-007 W00000005430020260224572331Simulated withdrawal                    00
SIM-E-023001ACT-E-001 D00000028490020260224572838Simulated deposit                       00
SIM-E-023002ACT-E-003 T00000016530020260224572838Simulated internal transfer             00
SIM-E-023003ACT-E-005 W00000011310020260224572838Simulated withdrawal                    00
SIM-E-023004ACT-E-006 D00000032040020260224572838Simulated deposit                       00
SIM-E-023005ACT-E-007 D00000006750020260224572838Simulated deposit                       00
SIM-E-023006ACT-E-008 D00000030960020260224572838Simulated deposit                       00
SIM-E-024001ACT-E-002 W00000011220020260224573246Simulated withdrawal                    00
SIM-E-024002ACT-E-004 D00000015630020260224573246Simulated deposit                       00
SIM-E-024003ACT-E-006 D00000014550020260224573246Simulated deposit                       00
SIM-E-024004ACT-E-008 T00000012010020260224573246Simulated internal transfer             00
SIM-E-025001ACT-E-002 D00000048720020260224573760Simulated deposit                       00
SIM-E-025002ACT-E-004 T00000045220020260224573760Outbound interbank transfer             00
SIM-E-025003ACT-E-006 W00000014920020260224573760Simulated withdrawal                    00
SIM-E-025004ACT-E-008 D00000026980020260224573760Simulated deposit                       00
